{
  "contractName": "CampaignFactory",
  "abi": [
    {
      "anonymous": false,
      "inputs": [
        {
          "indexed": true,
          "internalType": "address",
          "name": "campaignContractAddress",
          "type": "address"
        },
        {
          "indexed": true,
          "internalType": "address",
          "name": "campaignContractOwner",
          "type": "address"
        }
      ],
      "name": "NewCampaignCreated",
      "type": "event"
    },
    {
      "inputs": [
        {
          "internalType": "uint256",
          "name": "",
          "type": "uint256"
        }
      ],
      "name": "campaigns",
      "outputs": [
        {
          "internalType": "address",
          "name": "",
          "type": "address"
        }
      ],
      "stateMutability": "view",
      "type": "function",
      "constant": true
    },
    {
      "inputs": [
        {
          "internalType": "string",
          "name": "_title",
          "type": "string"
        },
        {
          "internalType": "string",
          "name": "_description",
          "type": "string"
        },
        {
          "internalType": "uint256",
          "name": "_fundingGoal",
          "type": "uint256"
        },
        {
          "internalType": "uint256",
          "name": "_minimumContribution",
          "type": "uint256"
        },
        {
          "internalType": "string",
          "name": "_imageURL",
          "type": "string"
        }
      ],
      "name": "createCampaign",
      "outputs": [],
      "stateMutability": "nonpayable",
      "type": "function"
    },
    {
      "inputs": [],
      "name": "getCampaigns",
      "outputs": [
        {
          "internalType": "address[]",
          "name": "",
          "type": "address[]"
        }
      ],
      "stateMutability": "view",
      "type": "function",
      "constant": true
    }
  ],
  "bytecode": "0x608060405234801561001057600080fd5b50612d2b806100206000396000f3fe60806040523480156200001157600080fd5b5060043610620000465760003560e01c8063141961bc146200004b578063a6b036331462000081578063d4e3dd6f14620000a3575b600080fd5b6200006960048036038101906200006391906200042d565b620000c3565b60405162000078919062000557565b60405180910390f35b6200008b62000103565b6040516200009a919062000574565b60405180910390f35b620000c16004803603810190620000bb919062000348565b62000193565b005b60008181548110620000d457600080fd5b906000526020600020016000915054906101000a900473ffffffffffffffffffffffffffffffffffffffff1681565b606060008054806020026020016040519081016040528092919081815260200182805480156200018957602002820191906000526020600020905b8160009054906101000a900473ffffffffffffffffffffffffffffffffffffffff1673ffffffffffffffffffffffffffffffffffffffff16815260200190600101908083116200013e575b5050505050905090565b6000858585858533604051620001a990620002a5565b620001ba9695949392919062000598565b604051809103906000f080158015620001d7573d6000803e3d6000fd5b50905060008190506000819080600181540180825580915050600190039060005260206000200160009091909190916101000a81548173ffffffffffffffffffffffffffffffffffffffff021916908373ffffffffffffffffffffffffffffffffffffffff1602179055503373ffffffffffffffffffffffffffffffffffffffff168173ffffffffffffffffffffffffffffffffffffffff167f7a47b9f1bb71909da7a15483ebe795da6053149ab83390479861318182c5f70160405160405180910390a350505050505050565b61250080620007f683390190565b6000620002ca620002c48462000643565b6200061a565b905082815260208101848484011115620002e957620002e8620007bb565b5b620002f68482856200070c565b509392505050565b600082601f830112620003165762000315620007b6565b5b813562000328848260208601620002b3565b91505092915050565b6000813590506200034281620007db565b92915050565b600080600080600060a08688031215620003675762000366620007c5565b5b600086013567ffffffffffffffff811115620003885762000387620007c0565b5b6200039688828901620002fe565b955050602086013567ffffffffffffffff811115620003ba57620003b9620007c0565b5b620003c888828901620002fe565b9450506040620003db8882890162000331565b9350506060620003ee8882890162000331565b925050608086013567ffffffffffffffff811115620004125762000411620007c0565b5b6200042088828901620002fe565b9150509295509295909350565b600060208284031215620004465762000445620007c5565b5b6000620004568482850162000331565b91505092915050565b60006200046d838362000479565b60208301905092915050565b6200048481620006ce565b82525050565b6200049581620006ce565b82525050565b6000620004a88262000689565b620004b48185620006ac565b9350620004c18362000679565b8060005b83811015620004f8578151620004dc88826200045f565b9750620004e9836200069f565b925050600181019050620004c5565b5085935050505092915050565b6000620005128262000694565b6200051e8185620006bd565b9350620005308185602086016200071b565b6200053b81620007ca565b840191505092915050565b620005518162000702565b82525050565b60006020820190506200056e60008301846200048a565b92915050565b600060208201905081810360008301526200059081846200049b565b905092915050565b600060c0820190508181036000830152620005b4818962000505565b90508181036020830152620005ca818862000505565b9050620005db604083018762000546565b620005ea606083018662000546565b8181036080830152620005fe818562000505565b90506200060f60a08301846200048a565b979650505050505050565b60006200062662000639565b905062000634828262000751565b919050565b6000604051905090565b600067ffffffffffffffff82111562000661576200066062000787565b5b6200066c82620007ca565b9050602081019050919050565b6000819050602082019050919050565b600081519050919050565b600081519050919050565b6000602082019050919050565b600082825260208201905092915050565b600082825260208201905092915050565b6000620006db82620006e2565b9050919050565b600073ffffffffffffffffffffffffffffffffffffffff82169050919050565b6000819050919050565b82818337600083830152505050565b60005b838110156200073b5780820151818401526020810190506200071e565b838111156200074b576000848401525b50505050565b6200075c82620007ca565b810181811067ffffffffffffffff821117156200077e576200077d62000787565b5b80604052505050565b7f4e487b7100000000000000000000000000000000000000000000000000000000600052604160045260246000fd5b600080fd5b600080fd5b600080fd5b600080fd5b6000601f19601f8301169050919050565b620007e68162000702565b8114620007f257600080fd5b5056fe60806040523480156200001157600080fd5b50604051620025003803806200250083398181016040528101906200003791906200043b565b620000576200004b620000d460201b60201c565b620000dc60201b60201c565b6200006881620001a060201b60201c565b856001908051906020019062000080929190620002df565b50846002908051906020019062000099929190620002df565b5083600381905550826005819055508160069080519060200190620000c0929190620002df565b504260098190555050505050505062000845565b600033905090565b60008060009054906101000a900473ffffffffffffffffffffffffffffffffffffffff169050816000806101000a81548173ffffffffffffffffffffffffffffffffffffffff021916908373ffffffffffffffffffffffffffffffffffffffff1602179055508173ffffffffffffffffffffffffffffffffffffffff168173ffffffffffffffffffffffffffffffffffffffff167f8be0079c531659141344cd1fd0a4f28419497f9722a3daafe3b4186f6b6457e060405160405180910390a35050565b620001b0620000d460201b60201c565b73ffffffffffffffffffffffffffffffffffffffff16620001d6620002b660201b60201c565b73ffffffffffffffffffffffffffffffffffffffff16146200022f576040517f08c379a00000000000000000000000000000000000000000000000000000000081526004016200022690620005a4565b60405180910390fd5b600073ffffffffffffffffffffffffffffffffffffffff168173ffffffffffffffffffffffffffffffffffffffff161415620002a2576040517f08c379a0000000000000000000000000000000000000000000000000000000008152600401620002999062000582565b60405180910390fd5b620002b381620000dc60201b60201c565b50565b60008060009054906101000a900473ffffffffffffffffffffffffffffffffffffffff16905090565b828054620002ed90620006aa565b90600052602060002090601f0160209004810192826200031157600085556200035d565b82601f106200032c57805160ff19168380011785556200035d565b828001600101855582156200035d579182015b828111156200035c5782518255916020019190600101906200033f565b5b5090506200036c919062000370565b5090565b5b808211156200038b57600081600090555060010162000371565b5090565b6000620003a6620003a084620005ef565b620005c6565b905082815260208101848484011115620003c557620003c462000779565b5b620003d284828562000674565b509392505050565b600081519050620003eb8162000811565b92915050565b600082601f83011262000409576200040862000774565b5b81516200041b8482602086016200038f565b91505092915050565b60008151905062000435816200082b565b92915050565b60008060008060008060c087890312156200045b576200045a62000783565b5b600087015167ffffffffffffffff8111156200047c576200047b6200077e565b5b6200048a89828a01620003f1565b965050602087015167ffffffffffffffff811115620004ae57620004ad6200077e565b5b620004bc89828a01620003f1565b9550506040620004cf89828a0162000424565b9450506060620004e289828a0162000424565b935050608087015167ffffffffffffffff8111156200050657620005056200077e565b5b6200051489828a01620003f1565b92505060a06200052789828a01620003da565b9150509295509295509295565b60006200054360268362000625565b9150620005508262000799565b604082019050919050565b60006200056a60208362000625565b91506200057782620007e8565b602082019050919050565b600060208201905081810360008301526200059d8162000534565b9050919050565b60006020820190508181036000830152620005bf816200055b565b9050919050565b6000620005d2620005e5565b9050620005e08282620006e0565b919050565b6000604051905090565b600067ffffffffffffffff8211156200060d576200060c62000745565b5b620006188262000788565b9050602081019050919050565b600082825260208201905092915050565b600062000643826200064a565b9050919050565b600073ffffffffffffffffffffffffffffffffffffffff82169050919050565b6000819050919050565b60005b838110156200069457808201518184015260208101905062000677565b83811115620006a4576000848401525b50505050565b60006002820490506001821680620006c357607f821691505b60208210811415620006da57620006d962000716565b5b50919050565b620006eb8262000788565b810181811067ffffffffffffffff821117156200070d576200070c62000745565b5b80604052505050565b7f4e487b7100000000000000000000000000000000000000000000000000000000600052602260045260246000fd5b7f4e487b7100000000000000000000000000000000000000000000000000000000600052604160045260246000fd5b600080fd5b600080fd5b600080fd5b600080fd5b6000601f19601f8301169050919050565b7f4f776e61626c653a206e6577206f776e657220697320746865207a65726f206160008201527f6464726573730000000000000000000000000000000000000000000000000000602082015250565b7f4f776e61626c653a2063616c6c6572206973206e6f7420746865206f776e6572600082015250565b6200081c8162000636565b81146200082857600080fd5b50565b62000836816200066a565b81146200084257600080fd5b50565b611cab80620008556000396000f3fe6080604052600436106101095760003560e01c80638da5cb5b11610095578063b90497e011610064578063b90497e01461031a578063cb6a912214610345578063f2fde38b1461036e578063fba849b714610397578063fbbf93a0146103c257610109565b80638da5cb5b1461028f578063937e09b1146102ba578063b60d4288146102e5578063b80777ea146102ef57610109565b80636ce6ed4c116100dc5780636ce6ed4c146101ce5780636d210c38146101f9578063715018a6146102225780637284e416146102395780637a3a0e841461026457610109565b80631d565e781461010e57806337195985146101395780634a79d50c1461017a578063572d5423146101a5575b600080fd5b34801561011a57600080fd5b506101236103f6565b60405161013091906117ec565b60405180910390f35b34801561014557600080fd5b50610160600480360381019061015b9190611447565b6103fc565b6040516101719594939291906116d2565b60405180910390f35b34801561018657600080fd5b5061018f6104e7565b60405161019c91906115ff565b60405180910390f35b3480156101b157600080fd5b506101cc60048036038101906101c79190611447565b610575565b005b3480156101da57600080fd5b506101e36107b0565b6040516101f091906117ec565b60405180910390f35b34801561020557600080fd5b50610220600480360381019061021b91906113d8565b6107b6565b005b34801561022e57600080fd5b506102376109d7565b005b34801561024557600080fd5b5061024e610a5f565b60405161025b91906115ff565b60405180910390f35b34801561027057600080fd5b50610279610aed565b60405161028691906117ec565b60405180910390f35b34801561029b57600080fd5b506102a4610af3565b6040516102b191906115e4565b60405180910390f35b3480156102c657600080fd5b506102cf610b1c565b6040516102dc91906117ec565b60405180910390f35b6102ed610b22565b005b3480156102fb57600080fd5b50610304610c90565b60405161031191906117ec565b60405180910390f35b34801561032657600080fd5b5061032f610c96565b60405161033c91906115ff565b60405180910390f35b34801561035157600080fd5b5061036c60048036038101906103679190611447565b610d24565b005b34801561037a57600080fd5b50610395600480360381019061039091906113ab565b610eb2565b005b3480156103a357600080fd5b506103ac610faa565b6040516103b991906117ec565b60405180910390f35b3480156103ce57600080fd5b506103d7610fb0565b6040516103ed9a99989796959493929190611621565b60405180910390f35b60085481565b600b60205280600052604060002060009150905080600001805461041f906119be565b80601f016020809104026020016040519081016040528092919081815260200182805461044b906119be565b80156104985780601f1061046d57610100808354040283529160200191610498565b820191906000526020600020905b81548152906001019060200180831161047b57829003601f168201915b5050505050908060010154908060020160009054906101000a900473ffffffffffffffffffffffffffffffffffffffff16908060020160149054906101000a900460ff16908060030154905085565b600180546104f4906119be565b80601f0160208091040260200160405190810160405280929190818152602001828054610520906119be565b801561056d5780601f106105425761010080835404028352916020019161056d565b820191906000526020600020905b81548152906001019060200180831161055057829003601f168201915b505050505081565b61057d6111a2565b73ffffffffffffffffffffffffffffffffffffffff1661059b610af3565b73ffffffffffffffffffffffffffffffffffffffff16146105f1576040517f08c379a00000000000000000000000000000000000000000000000000000000081526004016105e89061176c565b60405180910390fd5b6000600b600083815260200190815260200160002090508060020160149054906101000a900460ff161561062457600080fd5b60026008546106339190611903565b81600301541161064257600080fd5b60018160020160146101000a81548160ff02191690831515021790555060008160020160009054906101000a900473ffffffffffffffffffffffffffffffffffffffff1673ffffffffffffffffffffffffffffffffffffffff1682600101546040516106ad906115cf565b60006040518083038185875af1925050503d80600081146106ea576040519150601f19603f3d011682016040523d82523d6000602084013e6106ef565b606091505b5050905080610733576040517f08c379a000000000000000000000000000000000000000000000000000000000815260040161072a9061178c565b60405180910390fd5b8160020160009054906101000a900473ffffffffffffffffffffffffffffffffffffffff1673ffffffffffffffffffffffffffffffffffffffff167f6689531fc21b116b87dff046e55b3818e236926e4ce1cd69fd4c9b9483b66cd48484600101546040516107a3929190611807565b60405180910390a2505050565b600a5481565b6107be6111a2565b73ffffffffffffffffffffffffffffffffffffffff166107dc610af3565b73ffffffffffffffffffffffffffffffffffffffff1614610832576040517f08c379a00000000000000000000000000000000000000000000000000000000081526004016108299061176c565b60405180910390fd5b81471015610875576040517f08c379a000000000000000000000000000000000000000000000000000000000815260040161086c9061174c565b60405180910390fd5b61087d610af3565b73ffffffffffffffffffffffffffffffffffffffff168173ffffffffffffffffffffffffffffffffffffffff1614156108eb576040517f08c379a00000000000000000000000000000000000000000000000000000000081526004016108e2906117cc565b60405180910390fd5b6000600b60006001600a600082825461090491906118ad565b925050819055815260200190815260200160002090508381600001908051906020019061093292919061126e565b50828160010181905550818160020160006101000a81548173ffffffffffffffffffffffffffffffffffffffff021916908373ffffffffffffffffffffffffffffffffffffffff1602179055508173ffffffffffffffffffffffffffffffffffffffff167fa96d5fcc049d2c8f7d48804235328c42d5f76e9872a2c59b766a30af0e5891f1600a54856040516109c9929190611807565b60405180910390a250505050565b6109df6111a2565b73ffffffffffffffffffffffffffffffffffffffff166109fd610af3565b73ffffffffffffffffffffffffffffffffffffffff1614610a53576040517f08c379a0000000000000000000000000000000000000000000000000000000008152600401610a4a9061176c565b60405180910390fd5b610a5d60006111aa565b565b60028054610a6c906119be565b80601f0160208091040260200160405190810160405280929190818152602001828054610a98906119be565b8015610ae55780601f10610aba57610100808354040283529160200191610ae5565b820191906000526020600020905b815481529060010190602001808311610ac857829003601f168201915b505050505081565b60035481565b60008060009054906101000a900473ffffffffffffffffffffffffffffffffffffffff16905090565b60055481565b600554341015610b67576040517f08c379a0000000000000000000000000000000000000000000000000000000008152600401610b5e906117ac565b60405180910390fd5b60011515600760003373ffffffffffffffffffffffffffffffffffffffff1673ffffffffffffffffffffffffffffffffffffffff16815260200190815260200160002060009054906101000a900460ff16151514610bda57600160086000828254610bd291906118ad565b925050819055505b6001600760003373ffffffffffffffffffffffffffffffffffffffff1673ffffffffffffffffffffffffffffffffffffffff16815260200190815260200160002060006101000a81548160ff0219169083151502179055503460046000828254610c4491906118ad565b925050819055503373ffffffffffffffffffffffffffffffffffffffff167ff57ee32fbc351319d0ac4e04369094462d2ea91d7e5c9d29d37b8d8693846b2360405160405180910390a2565b60095481565b60068054610ca3906119be565b80601f0160208091040260200160405190810160405280929190818152602001828054610ccf906119be565b8015610d1c5780601f10610cf157610100808354040283529160200191610d1c565b820191906000526020600020905b815481529060010190602001808311610cff57829003601f168201915b505050505081565b600760003373ffffffffffffffffffffffffffffffffffffffff1673ffffffffffffffffffffffffffffffffffffffff16815260200190815260200160002060009054906101000a900460ff16610d7a57600080fd5b6000600b600083815260200190815260200160002090508060040160003373ffffffffffffffffffffffffffffffffffffffff1673ffffffffffffffffffffffffffffffffffffffff16815260200190815260200160002060009054906101000a900460ff1615610dea57600080fd5b60018160040160003373ffffffffffffffffffffffffffffffffffffffff1673ffffffffffffffffffffffffffffffffffffffff16815260200190815260200160002060006101000a81548160ff0219169083151502179055506001816003016000828254610e5991906118ad565b925050819055503373ffffffffffffffffffffffffffffffffffffffff167fe643176ff0ff175b91b67f1c7303372f897e864732bd2a39593178bd3ab0831883604051610ea691906117ec565b60405180910390a25050565b610eba6111a2565b73ffffffffffffffffffffffffffffffffffffffff16610ed8610af3565b73ffffffffffffffffffffffffffffffffffffffff1614610f2e576040517f08c379a0000000000000000000000000000000000000000000000000000000008152600401610f259061176c565b60405180910390fd5b600073ffffffffffffffffffffffffffffffffffffffff168173ffffffffffffffffffffffffffffffffffffffff161415610f9e576040517f08c379a0000000000000000000000000000000000000000000000000000000008152600401610f959061172c565b60405180910390fd5b610fa7816111aa565b50565b60045481565b6060806000806000606060008060008060016002600354600554600854600660045430610fdb610af3565b600954898054610fea906119be565b80601f0160208091040260200160405190810160405280929190818152602001828054611016906119be565b80156110635780601f1061103857610100808354040283529160200191611063565b820191906000526020600020905b81548152906001019060200180831161104657829003601f168201915b50505050509950888054611076906119be565b80601f01602080910402602001604051908101604052809291908181526020018280546110a2906119be565b80156110ef5780601f106110c4576101008083540402835291602001916110ef565b820191906000526020600020905b8154815290600101906020018083116110d257829003601f168201915b50505050509850848054611102906119be565b80601f016020809104026020016040519081016040528092919081815260200182805461112e906119be565b801561117b5780601f106111505761010080835404028352916020019161117b565b820191906000526020600020905b81548152906001019060200180831161115e57829003601f168201915b50505050509450995099509950995099509950995099509950995090919293949596979899565b600033905090565b60008060009054906101000a900473ffffffffffffffffffffffffffffffffffffffff169050816000806101000a81548173ffffffffffffffffffffffffffffffffffffffff021916908373ffffffffffffffffffffffffffffffffffffffff1602179055508173ffffffffffffffffffffffffffffffffffffffff168173ffffffffffffffffffffffffffffffffffffffff167f8be0079c531659141344cd1fd0a4f28419497f9722a3daafe3b4186f6b6457e060405160405180910390a35050565b82805461127a906119be565b90600052602060002090601f01602090048101928261129c57600085556112e3565b82601f106112b557805160ff19168380011785556112e3565b828001600101855582156112e3579182015b828111156112e25782518255916020019190600101906112c7565b5b5090506112f091906112f4565b5090565b5b8082111561130d5760008160009055506001016112f5565b5090565b600061132461131f84611855565b611830565b9050828152602081018484840111156113405761133f611ae2565b5b61134b84828561197c565b509392505050565b60008135905061136281611c47565b92915050565b600082601f83011261137d5761137c611add565b5b813561138d848260208601611311565b91505092915050565b6000813590506113a581611c5e565b92915050565b6000602082840312156113c1576113c0611aec565b5b60006113cf84828501611353565b91505092915050565b6000806000606084860312156113f1576113f0611aec565b5b600084013567ffffffffffffffff81111561140f5761140e611ae7565b5b61141b86828701611368565b935050602061142c86828701611396565b925050604061143d86828701611353565b9150509250925092565b60006020828403121561145d5761145c611aec565b5b600061146b84828501611396565b91505092915050565b61147d81611934565b82525050565b61148c81611946565b82525050565b600061149d82611886565b6114a7818561189c565b93506114b781856020860161198b565b6114c081611af1565b840191505092915050565b60006114d860268361189c565b91506114e382611b02565b604082019050919050565b60006114fb601f8361189c565b915061150682611b51565b602082019050919050565b600061151e60208361189c565b915061152982611b7a565b602082019050919050565b6000611541600083611891565b915061154c82611ba3565b600082019050919050565b600061156460108361189c565b915061156f82611ba6565b602082019050919050565b600061158760348361189c565b915061159282611bcf565b604082019050919050565b60006115aa601d8361189c565b91506115b582611c1e565b602082019050919050565b6115c981611972565b82525050565b60006115da82611534565b9150819050919050565b60006020820190506115f96000830184611474565b92915050565b600060208201905081810360008301526116198184611492565b905092915050565b600061014082019050818103600083015261163c818d611492565b90508181036020830152611650818c611492565b905061165f604083018b6115c0565b61166c606083018a6115c0565b61167960808301896115c0565b81810360a083015261168b8188611492565b905061169a60c08301876115c0565b6116a760e0830186611474565b6116b5610100830185611474565b6116c36101208301846115c0565b9b9a5050505050505050505050565b600060a08201905081810360008301526116ec8188611492565b90506116fb60208301876115c0565b6117086040830186611474565b6117156060830185611483565b61172260808301846115c0565b9695505050505050565b60006020820190508181036000830152611745816114cb565b9050919050565b60006020820190508181036000830152611765816114ee565b9050919050565b6000602082019050818103600083015261178581611511565b9050919050565b600060208201905081810360008301526117a581611557565b9050919050565b600060208201905081810360008301526117c58161157a565b9050919050565b600060208201905081810360008301526117e58161159d565b9050919050565b600060208201905061180160008301846115c0565b92915050565b600060408201905061181c60008301856115c0565b61182960208301846115c0565b9392505050565b600061183a61184b565b905061184682826119f0565b919050565b6000604051905090565b600067ffffffffffffffff8211156118705761186f611aae565b5b61187982611af1565b9050602081019050919050565b600081519050919050565b600081905092915050565b600082825260208201905092915050565b60006118b882611972565b91506118c383611972565b9250827fffffffffffffffffffffffffffffffffffffffffffffffffffffffffffffffff038211156118f8576118f7611a21565b5b828201905092915050565b600061190e82611972565b915061191983611972565b92508261192957611928611a50565b5b828204905092915050565b600061193f82611952565b9050919050565b60008115159050919050565b600073ffffffffffffffffffffffffffffffffffffffff82169050919050565b6000819050919050565b82818337600083830152505050565b60005b838110156119a957808201518184015260208101905061198e565b838111156119b8576000848401525b50505050565b600060028204905060018216806119d657607f821691505b602082108114156119ea576119e9611a7f565b5b50919050565b6119f982611af1565b810181811067ffffffffffffffff82111715611a1857611a17611aae565b5b80604052505050565b7f4e487b7100000000000000000000000000000000000000000000000000000000600052601160045260246000fd5b7f4e487b7100000000000000000000000000000000000000000000000000000000600052601260045260246000fd5b7f4e487b7100000000000000000000000000000000000000000000000000000000600052602260045260246000fd5b7f4e487b7100000000000000000000000000000000000000000000000000000000600052604160045260246000fd5b600080fd5b600080fd5b600080fd5b600080fd5b6000601f19601f8301169050919050565b7f4f776e61626c653a206e6577206f776e657220697320746865207a65726f206160008201527f6464726573730000000000000000000000000000000000000000000000000000602082015250565b7f52657175657374696e67206d6f7265207468616e20617661696c61626c652e00600082015250565b7f4f776e61626c653a2063616c6c6572206973206e6f7420746865206f776e6572600082015250565b50565b7f5472616e73666572206661696c65642e00000000000000000000000000000000600082015250565b7f56616c7565206973206c657373207468616e2074686520616c6c6f776564206d60008201527f696e696d756d20636f6e747269627574696f6e2e000000000000000000000000602082015250565b7f526563697069656e742063616e6e6f7420626520746865206f776e6572000000600082015250565b611c5081611934565b8114611c5b57600080fd5b50565b611c6781611972565b8114611c7257600080fd5b5056fea2646970667358221220f598e4f297f3c1a4a6f560ff1c220d067f5d004244542d1a81c8d7d78734a9d564736f6c63430008070033a2646970667358221220dcc80296f52637bc75b72f44407ce84f9fcb5f358692d08e6eace4e93ffac7ea64736f6c63430008070033",
  "immutableReferences": {},
  "source": "// SPDX-License-Identifier: MIT\npragma solidity 0.8.7;\n\nimport \"./Campaign.sol\";\n\n/// @title Factory contract for creating Campaigns\n/// @author Alexander van Zyl\n/// @notice Creates a new Campaign contract\n/// @dev Used for creating and listing Campaigns\ncontract CampaignFactory {\n    /// @notice List of all Campaign contract addresses\n    address[] public campaigns;\n\n    /// @notice Emitted when a new Campaign contract is created\n    /// @param campaignContractAddress The address of the newly created Campaign contract\n    /// @param campaignContractOwner The address of the owner of the Campaign contract\n    event NewCampaignCreated(\n        address indexed campaignContractAddress,\n        address indexed campaignContractOwner\n    );\n\n    /// @notice Create a new Campaign\n    /// @param _title The title or name of the Campaign\n    /// @param _description A brief description about the Campaign\n    /// @param _fundingGoal Amount of funding in ether that the Campaign is trying to raise\n    /// @param _minimumContribution The minimum amount in ether that a backer can contribute\n    /// @param _imageURL Cover image URL fot the Campaign\n    function createCampaign(\n        string memory _title,\n        string memory _description,\n        uint256 _fundingGoal,\n        uint256 _minimumContribution,\n        string memory _imageURL\n    ) public {\n        Campaign newCampaign = new Campaign(\n            _title,\n            _description,\n            _fundingGoal,\n            _minimumContribution,\n            _imageURL,\n            msg.sender\n        );\n        address campaignContractAddress = address(newCampaign);\n        campaigns.push(campaignContractAddress);\n        emit NewCampaignCreated(campaignContractAddress, msg.sender);\n    }\n\n    /// @notice Get a list all Campaign contract addresses\n    /// @return List of all Campaign contract addresses\n    function getCampaigns() public view returns (address[] memory) {\n        return campaigns;\n    }\n}\n",
  "sourcePath": "/home/alex/Code/LearningBlockchain/Consensys/blockchain-developer-bootcamp-final-project/contracts/CampaignFactory.sol",
  "compiler": {
    "name": "solc",
    "version": "0.8.7+commit.e28d00a7.Emscripten.clang"
  },
  "schemaVersion": "3.4.3",
  "updatedAt": "2021-12-04T09:47:16.334Z",
  "networkType": "ethereum",
  "devdoc": {
    "author": "Alexander van Zyl",
    "details": "Used for creating and listing Campaigns",
    "events": {
      "NewCampaignCreated(address,address)": {
        "params": {
          "campaignContractAddress": "The address of the newly created Campaign contract",
          "campaignContractOwner": "The address of the owner of the Campaign contract"
        }
      }
    },
    "kind": "dev",
    "methods": {
      "createCampaign(string,string,uint256,uint256,string)": {
        "params": {
          "_description": "A brief description about the Campaign",
          "_fundingGoal": "Amount of funding in ether that the Campaign is trying to raise",
          "_imageURL": "Cover image URL fot the Campaign",
          "_minimumContribution": "The minimum amount in ether that a backer can contribute",
          "_title": "The title or name of the Campaign"
        }
      },
      "getCampaigns()": {
        "returns": {
          "_0": "List of all Campaign contract addresses"
        }
      }
    },
    "title": "Factory contract for creating Campaigns",
    "version": 1
  },
  "userdoc": {
    "events": {
      "NewCampaignCreated(address,address)": {
        "notice": "Emitted when a new Campaign contract is created"
      }
    },
    "kind": "user",
    "methods": {
      "campaigns(uint256)": {
        "notice": "List of all Campaign contract addresses"
      },
      "createCampaign(string,string,uint256,uint256,string)": {
        "notice": "Create a new Campaign"
      },
      "getCampaigns()": {
        "notice": "Get a list all Campaign contract addresses"
      }
    },
    "notice": "Creates a new Campaign contract",
    "version": 1
  }
}