{
  "contractName": "Campaign",
  "abi": [
    {
      "inputs": [
        {
          "internalType": "string",
          "name": "_title",
          "type": "string"
        },
        {
          "internalType": "string",
          "name": "_description",
          "type": "string"
        },
        {
          "internalType": "uint256",
          "name": "_fundingGoal",
          "type": "uint256"
        },
        {
          "internalType": "uint256",
          "name": "_minimumContribution",
          "type": "uint256"
        },
        {
          "internalType": "string",
          "name": "_imageURL",
          "type": "string"
        },
        {
          "internalType": "address",
          "name": "_owner",
          "type": "address"
        }
      ],
      "stateMutability": "nonpayable",
      "type": "constructor"
    },
    {
      "inputs": [
        {
          "internalType": "address",
          "name": "",
          "type": "address"
        }
      ],
      "name": "backers",
      "outputs": [
        {
          "internalType": "bool",
          "name": "",
          "type": "bool"
        }
      ],
      "stateMutability": "view",
      "type": "function"
    },
    {
      "inputs": [],
      "name": "backersCount",
      "outputs": [
        {
          "internalType": "uint256",
          "name": "",
          "type": "uint256"
        }
      ],
      "stateMutability": "view",
      "type": "function"
    },
    {
      "inputs": [],
      "name": "description",
      "outputs": [
        {
          "internalType": "string",
          "name": "",
          "type": "string"
        }
      ],
      "stateMutability": "view",
      "type": "function"
    },
    {
      "inputs": [],
      "name": "fundingGoal",
      "outputs": [
        {
          "internalType": "uint256",
          "name": "",
          "type": "uint256"
        }
      ],
      "stateMutability": "view",
      "type": "function"
    },
    {
      "inputs": [],
      "name": "imageURL",
      "outputs": [
        {
          "internalType": "string",
          "name": "",
          "type": "string"
        }
      ],
      "stateMutability": "view",
      "type": "function"
    },
    {
      "inputs": [],
      "name": "minimumContribution",
      "outputs": [
        {
          "internalType": "uint256",
          "name": "",
          "type": "uint256"
        }
      ],
      "stateMutability": "view",
      "type": "function"
    },
    {
      "inputs": [],
      "name": "owner",
      "outputs": [
        {
          "internalType": "address",
          "name": "",
          "type": "address"
        }
      ],
      "stateMutability": "view",
      "type": "function"
    },
    {
      "inputs": [],
      "name": "timestamp",
      "outputs": [
        {
          "internalType": "uint256",
          "name": "",
          "type": "uint256"
        }
      ],
      "stateMutability": "view",
      "type": "function"
    },
    {
      "inputs": [],
      "name": "title",
      "outputs": [
        {
          "internalType": "string",
          "name": "",
          "type": "string"
        }
      ],
      "stateMutability": "view",
      "type": "function"
    },
    {
      "inputs": [],
      "name": "totalFundingRecieved",
      "outputs": [
        {
          "internalType": "uint256",
          "name": "",
          "type": "uint256"
        }
      ],
      "stateMutability": "view",
      "type": "function"
    },
    {
      "inputs": [
        {
          "internalType": "uint256",
          "name": "_amount",
          "type": "uint256"
        }
      ],
      "name": "fund",
      "outputs": [],
      "stateMutability": "payable",
      "type": "function"
    },
    {
      "inputs": [
        {
          "internalType": "string",
          "name": "_description",
          "type": "string"
        },
        {
          "internalType": "uint256",
          "name": "_amount",
          "type": "uint256"
        },
        {
          "internalType": "address",
          "name": "_recipient",
          "type": "address"
        }
      ],
      "name": "createExpenditureRequest",
      "outputs": [],
      "stateMutability": "nonpayable",
      "type": "function"
    },
    {
      "inputs": [
        {
          "internalType": "uint256",
          "name": "_index",
          "type": "uint256"
        }
      ],
      "name": "approveExpenditureRequest",
      "outputs": [],
      "stateMutability": "nonpayable",
      "type": "function"
    },
    {
      "inputs": [
        {
          "internalType": "uint256",
          "name": "_index",
          "type": "uint256"
        }
      ],
      "name": "finalizeExpenditureRequest",
      "outputs": [],
      "stateMutability": "nonpayable",
      "type": "function"
    },
    {
      "inputs": [],
      "name": "getDetails",
      "outputs": [
        {
          "internalType": "string",
          "name": "",
          "type": "string"
        },
        {
          "internalType": "string",
          "name": "",
          "type": "string"
        },
        {
          "internalType": "uint256",
          "name": "",
          "type": "uint256"
        },
        {
          "internalType": "uint256",
          "name": "",
          "type": "uint256"
        },
        {
          "internalType": "uint256",
          "name": "",
          "type": "uint256"
        },
        {
          "internalType": "string",
          "name": "",
          "type": "string"
        },
        {
          "internalType": "uint256",
          "name": "",
          "type": "uint256"
        },
        {
          "internalType": "address",
          "name": "",
          "type": "address"
        },
        {
          "internalType": "address",
          "name": "",
          "type": "address"
        },
        {
          "internalType": "uint256",
          "name": "",
          "type": "uint256"
        }
      ],
      "stateMutability": "view",
      "type": "function"
    }
  ],
  "bytecode": "0x60806040523480156200001157600080fd5b506040516200121138038062001211833981810160405281019062000037919062000240565b85600090805190602001906200004f929190620000e4565b50846001908051906020019062000068929190620000e4565b50836002819055508260048190555081600590805190602001906200008f929190620000e4565b5080600660006101000a81548173ffffffffffffffffffffffffffffffffffffffff021916908373ffffffffffffffffffffffffffffffffffffffff160217905550426009819055505050505050506200052f565b828054620000f2906200040c565b90600052602060002090601f01602090048101928262000116576000855562000162565b82601f106200013157805160ff191683800117855562000162565b8280016001018555821562000162579182015b828111156200016157825182559160200191906001019062000144565b5b50905062000171919062000175565b5090565b5b808211156200019057600081600090555060010162000176565b5090565b6000620001ab620001a58462000362565b62000339565b905082815260208101848484011115620001ca57620001c9620004db565b5b620001d7848285620003d6565b509392505050565b600081519050620001f081620004fb565b92915050565b600082601f8301126200020e576200020d620004d6565b5b81516200022084826020860162000194565b91505092915050565b6000815190506200023a8162000515565b92915050565b60008060008060008060c0878903121562000260576200025f620004e5565b5b600087015167ffffffffffffffff811115620002815762000280620004e0565b5b6200028f89828a01620001f6565b965050602087015167ffffffffffffffff811115620002b357620002b2620004e0565b5b620002c189828a01620001f6565b9550506040620002d489828a0162000229565b9450506060620002e789828a0162000229565b935050608087015167ffffffffffffffff8111156200030b576200030a620004e0565b5b6200031989828a01620001f6565b92505060a06200032c89828a01620001df565b9150509295509295509295565b60006200034562000358565b905062000353828262000442565b919050565b6000604051905090565b600067ffffffffffffffff82111562000380576200037f620004a7565b5b6200038b82620004ea565b9050602081019050919050565b6000620003a582620003ac565b9050919050565b600073ffffffffffffffffffffffffffffffffffffffff82169050919050565b6000819050919050565b60005b83811015620003f6578082015181840152602081019050620003d9565b8381111562000406576000848401525b50505050565b600060028204905060018216806200042557607f821691505b602082108114156200043c576200043b62000478565b5b50919050565b6200044d82620004ea565b810181811067ffffffffffffffff821117156200046f576200046e620004a7565b5b80604052505050565b7f4e487b7100000000000000000000000000000000000000000000000000000000600052602260045260246000fd5b7f4e487b7100000000000000000000000000000000000000000000000000000000600052604160045260246000fd5b600080fd5b600080fd5b600080fd5b600080fd5b6000601f19601f8301169050919050565b620005068162000398565b81146200051257600080fd5b50565b6200052081620003cc565b81146200052c57600080fd5b50565b610cd2806200053f6000396000f3fe6080604052600436106100e85760003560e01c80638da5cb5b1161008a578063b90497e011610059578063b90497e0146102d4578063ca1d209d146102ff578063cb6a91221461031b578063fbbf93a014610344576100e8565b80638da5cb5b14610216578063937e09b114610241578063b80777ea1461026c578063b85dfb8014610297576100e8565b806367bee3d0116100c657806367bee3d01461016c5780636d210c38146101975780637284e416146101c05780637a3a0e84146101eb576100e8565b80631d565e78146100ed5780634a79d50c14610118578063572d542314610143575b600080fd5b3480156100f957600080fd5b50610102610378565b60405161010f9190610a71565b60405180910390f35b34801561012457600080fd5b5061012d61037e565b60405161013a919061099e565b60405180910390f35b34801561014f57600080fd5b5061016a600480360381019061016591906108d5565b61040c565b005b34801561017857600080fd5b5061018161040f565b60405161018e9190610a71565b60405180910390f35b3480156101a357600080fd5b506101be60048036038101906101b99190610866565b610415565b005b3480156101cc57600080fd5b506101d561041a565b6040516101e2919061099e565b60405180910390f35b3480156101f757600080fd5b506102006104a8565b60405161020d9190610a71565b60405180910390f35b34801561022257600080fd5b5061022b6104ae565b6040516102389190610968565b60405180910390f35b34801561024d57600080fd5b506102566104d4565b6040516102639190610a71565b60405180910390f35b34801561027857600080fd5b506102816104da565b60405161028e9190610a71565b60405180910390f35b3480156102a357600080fd5b506102be60048036038101906102b99190610839565b6104e0565b6040516102cb9190610983565b60405180910390f35b3480156102e057600080fd5b506102e9610500565b6040516102f6919061099e565b60405180910390f35b610319600480360381019061031491906108d5565b61058e565b005b34801561032757600080fd5b50610342600480360381019061033d91906108d5565b610591565b005b34801561035057600080fd5b50610359610594565b60405161036f9a999897969594939291906109c0565b60405180910390f35b60085481565b6000805461038b90610b88565b80601f01602080910402602001604051908101604052809291908181526020018280546103b790610b88565b80156104045780601f106103d957610100808354040283529160200191610404565b820191906000526020600020905b8154815290600101906020018083116103e757829003601f168201915b505050505081565b50565b60035481565b505050565b6001805461042790610b88565b80601f016020809104026020016040519081016040528092919081815260200182805461045390610b88565b80156104a05780601f10610475576101008083540402835291602001916104a0565b820191906000526020600020905b81548152906001019060200180831161048357829003601f168201915b505050505081565b60025481565b600660009054906101000a900473ffffffffffffffffffffffffffffffffffffffff1681565b60045481565b60095481565b60076020528060005260406000206000915054906101000a900460ff1681565b6005805461050d90610b88565b80601f016020809104026020016040519081016040528092919081815260200182805461053990610b88565b80156105865780601f1061055b57610100808354040283529160200191610586565b820191906000526020600020905b81548152906001019060200180831161056957829003601f168201915b505050505081565b50565b50565b606080600080600060606000806000806000600160025460045460085460054730600660009054906101000a900473ffffffffffffffffffffffffffffffffffffffff166009548980546105e790610b88565b80601f016020809104026020016040519081016040528092919081815260200182805461061390610b88565b80156106605780601f1061063557610100808354040283529160200191610660565b820191906000526020600020905b81548152906001019060200180831161064357829003601f168201915b5050505050995088805461067390610b88565b80601f016020809104026020016040519081016040528092919081815260200182805461069f90610b88565b80156106ec5780601f106106c1576101008083540402835291602001916106ec565b820191906000526020600020905b8154815290600101906020018083116106cf57829003601f168201915b505050505098508480546106ff90610b88565b80601f016020809104026020016040519081016040528092919081815260200182805461072b90610b88565b80156107785780601f1061074d57610100808354040283529160200191610778565b820191906000526020600020905b81548152906001019060200180831161075b57829003601f168201915b50505050509450995099509950995099509950995099509950995090919293949596979899565b60006107b26107ad84610ab1565b610a8c565b9050828152602081018484840111156107ce576107cd610c4e565b5b6107d9848285610b46565b509392505050565b6000813590506107f081610c6e565b92915050565b600082601f83011261080b5761080a610c49565b5b813561081b84826020860161079f565b91505092915050565b60008135905061083381610c85565b92915050565b60006020828403121561084f5761084e610c58565b5b600061085d848285016107e1565b91505092915050565b60008060006060848603121561087f5761087e610c58565b5b600084013567ffffffffffffffff81111561089d5761089c610c53565b5b6108a9868287016107f6565b93505060206108ba86828701610824565b92505060406108cb868287016107e1565b9150509250925092565b6000602082840312156108eb576108ea610c58565b5b60006108f984828501610824565b91505092915050565b61090b81610afe565b82525050565b61091a81610b10565b82525050565b600061092b82610ae2565b6109358185610aed565b9350610945818560208601610b55565b61094e81610c5d565b840191505092915050565b61096281610b3c565b82525050565b600060208201905061097d6000830184610902565b92915050565b60006020820190506109986000830184610911565b92915050565b600060208201905081810360008301526109b88184610920565b905092915050565b60006101408201905081810360008301526109db818d610920565b905081810360208301526109ef818c610920565b90506109fe604083018b610959565b610a0b606083018a610959565b610a186080830189610959565b81810360a0830152610a2a8188610920565b9050610a3960c0830187610959565b610a4660e0830186610902565b610a54610100830185610902565b610a62610120830184610959565b9b9a5050505050505050505050565b6000602082019050610a866000830184610959565b92915050565b6000610a96610aa7565b9050610aa28282610bba565b919050565b6000604051905090565b600067ffffffffffffffff821115610acc57610acb610c1a565b5b610ad582610c5d565b9050602081019050919050565b600081519050919050565b600082825260208201905092915050565b6000610b0982610b1c565b9050919050565b60008115159050919050565b600073ffffffffffffffffffffffffffffffffffffffff82169050919050565b6000819050919050565b82818337600083830152505050565b60005b83811015610b73578082015181840152602081019050610b58565b83811115610b82576000848401525b50505050565b60006002820490506001821680610ba057607f821691505b60208210811415610bb457610bb3610beb565b5b50919050565b610bc382610c5d565b810181811067ffffffffffffffff82111715610be257610be1610c1a565b5b80604052505050565b7f4e487b7100000000000000000000000000000000000000000000000000000000600052602260045260246000fd5b7f4e487b7100000000000000000000000000000000000000000000000000000000600052604160045260246000fd5b600080fd5b600080fd5b600080fd5b600080fd5b6000601f19601f8301169050919050565b610c7781610afe565b8114610c8257600080fd5b50565b610c8e81610b3c565b8114610c9957600080fd5b5056fea26469706673582212207b3772148f6338b567d22d687ed02235952da4a2ebf2254a88bf1f70e9fbd60564736f6c63430008070033",
  "immutableReferences": {},
  "source": "// SPDX-License-Identifier: MIT\npragma solidity 0.8.7;\n\ncontract Campaign {\n    string public title;\n    string public description;\n    uint256 public fundingGoal;\n    uint256 public totalFundingRecieved;\n    uint256 public minimumContribution;\n    string public imageURL;\n    address public owner;\n    mapping(address => bool) public backers;\n    uint256 public backersCount;\n    uint256 public timestamp;\n\n    constructor(\n        string memory _title,\n        string memory _description,\n        uint256 _fundingGoal,\n        uint256 _minimumContribution,\n        string memory _imageURL,\n        address _owner\n    ) {\n        title = _title;\n        description = _description;\n        fundingGoal = _fundingGoal;\n        minimumContribution = _minimumContribution;\n        imageURL = _imageURL;\n        owner = _owner;\n        timestamp = block.timestamp;\n    }\n\n    function fund(uint256 _amount) public payable {\n        // Fund the campaign should be equal to or more than min. contribution\n    }\n\n    function createExpenditureRequest(\n        string memory _description,\n        uint256 _amount,\n        address _recipient\n    ) public {\n        // Create an expenditure request that will need to be approved by the backers.\n    }\n\n    function approveExpenditureRequest(uint256 _index) public {\n        // Allows the backer to approve the expenditure\n    }\n\n    function finalizeExpenditureRequest(uint256 _index) public {\n        // check request has been approved by more than 50% of the backers\n        // transfer funds to the recipent\n        // mark request as complete\n    }\n\n    function getDetails()\n        public\n        view\n        returns (\n            string memory,\n            string memory,\n            uint256,\n            uint256,\n            uint256,\n            string memory,\n            uint256,\n            address,\n            address,\n            uint256\n        )\n    {\n        return (\n            title,\n            description,\n            fundingGoal,\n            minimumContribution,\n            backersCount,\n            imageURL,\n            address(this).balance,\n            address(this),\n            owner,\n            timestamp\n        );\n    }\n}\n",
  "sourcePath": "/home/alex/Code/LearningBlockchain/Consensys/blockchain-developer-bootcamp-final-project/contracts/Campaign.sol",
  "compiler": {
    "name": "solc",
    "version": "0.8.7+commit.e28d00a7.Emscripten.clang"
  },
  "schemaVersion": "3.4.3",
  "updatedAt": "2021-11-13T11:31:08.182Z",
  "devdoc": {
    "kind": "dev",
    "methods": {},
    "version": 1
  },
  "userdoc": {
    "kind": "user",
    "methods": {},
    "version": 1
  }
}