{
  "contractName": "CampaignFactory",
  "abi": [
    {
      "inputs": [
        {
          "internalType": "uint256",
          "name": "",
          "type": "uint256"
        }
      ],
      "name": "campaigns",
      "outputs": [
        {
          "internalType": "address",
          "name": "",
          "type": "address"
        }
      ],
      "stateMutability": "view",
      "type": "function",
      "constant": true
    },
    {
      "inputs": [
        {
          "internalType": "string",
          "name": "_title",
          "type": "string"
        },
        {
          "internalType": "string",
          "name": "_description",
          "type": "string"
        },
        {
          "internalType": "uint256",
          "name": "_fundingGoal",
          "type": "uint256"
        },
        {
          "internalType": "uint256",
          "name": "_minimumContribution",
          "type": "uint256"
        }
      ],
      "name": "createCampaign",
      "outputs": [],
      "stateMutability": "nonpayable",
      "type": "function"
    },
    {
      "inputs": [],
      "name": "getCampaigns",
      "outputs": [
        {
          "internalType": "address[]",
          "name": "",
          "type": "address[]"
        }
      ],
      "stateMutability": "view",
      "type": "function",
      "constant": true
    }
  ],
  "bytecode": "0x608060405234801561001057600080fd5b50611624806100206000396000f3fe60806040523480156200001157600080fd5b5060043610620000465760003560e01c8063141961bc146200004b578063a318f2691462000081578063a6b0363314620000a1575b600080fd5b62000069600480360381019062000063919062000395565b620000c3565b604051620000789190620004bf565b60405180910390f35b6200009f6004803603810190620000999190620002e5565b62000103565b005b620000ab620001b2565b604051620000ba9190620004dc565b60405180910390f35b60008181548110620000d457600080fd5b906000526020600020016000915054906101000a900473ffffffffffffffffffffffffffffffffffffffff1681565b60008484848433604051620001189062000242565b6200012895949392919062000500565b604051809103906000f08015801562000145573d6000803e3d6000fd5b5090506000819080600181540180825580915050600190039060005260206000200160009091909190916101000a81548173ffffffffffffffffffffffffffffffffffffffff021916908373ffffffffffffffffffffffffffffffffffffffff1602179055505050505050565b606060008054806020026020016040519081016040528092919081815260200182805480156200023857602002820191906000526020600020905b8160009054906101000a900473ffffffffffffffffffffffffffffffffffffffff1673ffffffffffffffffffffffffffffffffffffffff1681526020019060010190808311620001ed575b5050505050905090565b610ea8806200074783390190565b600062000267620002618462000594565b6200056b565b9050828152602081018484840111156200028657620002856200070c565b5b620002938482856200065d565b509392505050565b600082601f830112620002b357620002b262000707565b5b8135620002c584826020860162000250565b91505092915050565b600081359050620002df816200072c565b92915050565b6000806000806080858703121562000302576200030162000716565b5b600085013567ffffffffffffffff81111562000323576200032262000711565b5b62000331878288016200029b565b945050602085013567ffffffffffffffff81111562000355576200035462000711565b5b62000363878288016200029b565b93505060406200037687828801620002ce565b92505060606200038987828801620002ce565b91505092959194509250565b600060208284031215620003ae57620003ad62000716565b5b6000620003be84828501620002ce565b91505092915050565b6000620003d58383620003e1565b60208301905092915050565b620003ec816200061f565b82525050565b620003fd816200061f565b82525050565b60006200041082620005da565b6200041c8185620005fd565b93506200042983620005ca565b8060005b8381101562000460578151620004448882620003c7565b97506200045183620005f0565b9250506001810190506200042d565b5085935050505092915050565b60006200047a82620005e5565b6200048681856200060e565b9350620004988185602086016200066c565b620004a3816200071b565b840191505092915050565b620004b98162000653565b82525050565b6000602082019050620004d66000830184620003f2565b92915050565b60006020820190508181036000830152620004f8818462000403565b905092915050565b600060a08201905081810360008301526200051c81886200046d565b905081810360208301526200053281876200046d565b9050620005436040830186620004ae565b620005526060830185620004ae565b620005616080830184620003f2565b9695505050505050565b6000620005776200058a565b9050620005858282620006a2565b919050565b6000604051905090565b600067ffffffffffffffff821115620005b257620005b1620006d8565b5b620005bd826200071b565b9050602081019050919050565b6000819050602082019050919050565b600081519050919050565b600081519050919050565b6000602082019050919050565b600082825260208201905092915050565b600082825260208201905092915050565b60006200062c8262000633565b9050919050565b600073ffffffffffffffffffffffffffffffffffffffff82169050919050565b6000819050919050565b82818337600083830152505050565b60005b838110156200068c5780820151818401526020810190506200066f565b838111156200069c576000848401525b50505050565b620006ad826200071b565b810181811067ffffffffffffffff82111715620006cf57620006ce620006d8565b5b80604052505050565b7f4e487b7100000000000000000000000000000000000000000000000000000000600052604160045260246000fd5b600080fd5b600080fd5b600080fd5b600080fd5b6000601f19601f8301169050919050565b620007378162000653565b81146200074357600080fd5b5056fe60806040523480156200001157600080fd5b5060405162000ea838038062000ea883398181016040528101906200003791906200021f565b84600090805190602001906200004f929190620000c3565b50836001908051906020019062000068929190620000c3565b50826002819055508160048190555080600560006101000a81548173ffffffffffffffffffffffffffffffffffffffff021916908373ffffffffffffffffffffffffffffffffffffffff1602179055505050505050620004db565b828054620000d190620003b8565b90600052602060002090601f016020900481019282620000f5576000855562000141565b82601f106200011057805160ff191683800117855562000141565b8280016001018555821562000141579182015b828111156200014057825182559160200191906001019062000123565b5b50905062000150919062000154565b5090565b5b808211156200016f57600081600090555060010162000155565b5090565b60006200018a62000184846200030e565b620002e5565b905082815260208101848484011115620001a957620001a862000487565b5b620001b684828562000382565b509392505050565b600081519050620001cf81620004a7565b92915050565b600082601f830112620001ed57620001ec62000482565b5b8151620001ff84826020860162000173565b91505092915050565b6000815190506200021981620004c1565b92915050565b600080600080600060a086880312156200023e576200023d62000491565b5b600086015167ffffffffffffffff8111156200025f576200025e6200048c565b5b6200026d88828901620001d5565b955050602086015167ffffffffffffffff8111156200029157620002906200048c565b5b6200029f88828901620001d5565b9450506040620002b28882890162000208565b9350506060620002c58882890162000208565b9250506080620002d888828901620001be565b9150509295509295909350565b6000620002f162000304565b9050620002ff8282620003ee565b919050565b6000604051905090565b600067ffffffffffffffff8211156200032c576200032b62000453565b5b620003378262000496565b9050602081019050919050565b6000620003518262000358565b9050919050565b600073ffffffffffffffffffffffffffffffffffffffff82169050919050565b6000819050919050565b60005b83811015620003a257808201518184015260208101905062000385565b83811115620003b2576000848401525b50505050565b60006002820490506001821680620003d157607f821691505b60208210811415620003e857620003e762000424565b5b50919050565b620003f98262000496565b810181811067ffffffffffffffff821117156200041b576200041a62000453565b5b80604052505050565b7f4e487b7100000000000000000000000000000000000000000000000000000000600052602260045260246000fd5b7f4e487b7100000000000000000000000000000000000000000000000000000000600052604160045260246000fd5b600080fd5b600080fd5b600080fd5b600080fd5b6000601f19601f8301169050919050565b620004b28162000344565b8114620004be57600080fd5b50565b620004cc8162000378565b8114620004d857600080fd5b50565b6109bd80620004eb6000396000f3fe60806040526004361061009c5760003560e01c80637a3a0e84116100645780637a3a0e84146101745780638da5cb5b1461019f578063937e09b1146101ca578063ca1d209d146101f5578063cb6a912214610211578063fbbf93a01461023a5761009c565b80634a79d50c146100a1578063572d5423146100cc57806367bee3d0146100f55780636d210c38146101205780637284e41614610149575b600080fd5b3480156100ad57600080fd5b506100b661026a565b6040516100c391906106d7565b60405180910390f35b3480156100d857600080fd5b506100f360048036038101906100ee9190610638565b6102f8565b005b34801561010157600080fd5b5061010a6102fb565b6040516101179190610768565b60405180910390f35b34801561012c57600080fd5b50610147600480360381019061014291906105c9565b610301565b005b34801561015557600080fd5b5061015e610306565b60405161016b91906106d7565b60405180910390f35b34801561018057600080fd5b50610189610394565b6040516101969190610768565b60405180910390f35b3480156101ab57600080fd5b506101b461039a565b6040516101c191906106bc565b60405180910390f35b3480156101d657600080fd5b506101df6103c0565b6040516101ec9190610768565b60405180910390f35b61020f600480360381019061020a9190610638565b6103c6565b005b34801561021d57600080fd5b5061023860048036038101906102339190610638565b6103c9565b005b34801561024657600080fd5b5061024f6103cc565b604051610261969594939291906106f9565b60405180910390f35b6000805461027790610873565b80601f01602080910402602001604051908101604052809291908181526020018280546102a390610873565b80156102f05780601f106102c5576101008083540402835291602001916102f0565b820191906000526020600020905b8154815290600101906020018083116102d357829003601f168201915b505050505081565b50565b60035481565b505050565b6001805461031390610873565b80601f016020809104026020016040519081016040528092919081815260200182805461033f90610873565b801561038c5780601f106103615761010080835404028352916020019161038c565b820191906000526020600020905b81548152906001019060200180831161036f57829003601f168201915b505050505081565b60025481565b600560009054906101000a900473ffffffffffffffffffffffffffffffffffffffff1681565b60045481565b50565b50565b6060806000806000806000600160025460045447600560009054906101000a900473ffffffffffffffffffffffffffffffffffffffff1685805461040f90610873565b80601f016020809104026020016040519081016040528092919081815260200182805461043b90610873565b80156104885780601f1061045d57610100808354040283529160200191610488565b820191906000526020600020905b81548152906001019060200180831161046b57829003601f168201915b5050505050955084805461049b90610873565b80601f01602080910402602001604051908101604052809291908181526020018280546104c790610873565b80156105145780601f106104e957610100808354040283529160200191610514565b820191906000526020600020905b8154815290600101906020018083116104f757829003601f168201915b50505050509450955095509550955095509550909192939495565b600061054261053d846107a8565b610783565b90508281526020810184848401111561055e5761055d610939565b5b610569848285610831565b509392505050565b60008135905061058081610959565b92915050565b600082601f83011261059b5761059a610934565b5b81356105ab84826020860161052f565b91505092915050565b6000813590506105c381610970565b92915050565b6000806000606084860312156105e2576105e1610943565b5b600084013567ffffffffffffffff811115610600576105ff61093e565b5b61060c86828701610586565b935050602061061d868287016105b4565b925050604061062e86828701610571565b9150509250925092565b60006020828403121561064e5761064d610943565b5b600061065c848285016105b4565b91505092915050565b61066e816107f5565b82525050565b600061067f826107d9565b61068981856107e4565b9350610699818560208601610840565b6106a281610948565b840191505092915050565b6106b681610827565b82525050565b60006020820190506106d16000830184610665565b92915050565b600060208201905081810360008301526106f18184610674565b905092915050565b600060c08201905081810360008301526107138189610674565b905081810360208301526107278188610674565b905061073660408301876106ad565b61074360608301866106ad565b61075060808301856106ad565b61075d60a0830184610665565b979650505050505050565b600060208201905061077d60008301846106ad565b92915050565b600061078d61079e565b905061079982826108a5565b919050565b6000604051905090565b600067ffffffffffffffff8211156107c3576107c2610905565b5b6107cc82610948565b9050602081019050919050565b600081519050919050565b600082825260208201905092915050565b600061080082610807565b9050919050565b600073ffffffffffffffffffffffffffffffffffffffff82169050919050565b6000819050919050565b82818337600083830152505050565b60005b8381101561085e578082015181840152602081019050610843565b8381111561086d576000848401525b50505050565b6000600282049050600182168061088b57607f821691505b6020821081141561089f5761089e6108d6565b5b50919050565b6108ae82610948565b810181811067ffffffffffffffff821117156108cd576108cc610905565b5b80604052505050565b7f4e487b7100000000000000000000000000000000000000000000000000000000600052602260045260246000fd5b7f4e487b7100000000000000000000000000000000000000000000000000000000600052604160045260246000fd5b600080fd5b600080fd5b600080fd5b600080fd5b6000601f19601f8301169050919050565b610962816107f5565b811461096d57600080fd5b50565b61097981610827565b811461098457600080fd5b5056fea26469706673582212206e6450adeefb6fda0f7f6d0364025266e2c1d79a9089c00b58c1886dccd63fc464736f6c63430008070033a2646970667358221220a6e6adfc462f6230c323afa052fabcb702a0988d2cfa74270b427fed00ab18f764736f6c63430008070033",
  "immutableReferences": {},
  "source": "// SPDX-License-Identifier: MIT\npragma solidity 0.8.7;\n\nimport \"./Campaign.sol\";\n\ncontract CampaignFactory {\n    address[] public campaigns;\n\n    function createCampaign(\n        string memory _title,\n        string memory _description,\n        uint256 _fundingGoal,\n        uint256 _minimumContribution\n    ) public {\n        Campaign newCampaign = new Campaign(\n            _title,\n            _description,\n            _fundingGoal,\n            _minimumContribution,\n            msg.sender\n        );\n        campaigns.push(address(newCampaign));\n    }\n\n    function getCampaigns() public view returns (address[] memory) {\n        return campaigns;\n    }\n}\n",
  "sourcePath": "/home/alex/Code/LearningBlockchain/Consensys/blockchain-developer-bootcamp-final-project/contracts/CampaignFactory.sol",
  "compiler": {
    "name": "solc",
    "version": "0.8.7+commit.e28d00a7.Emscripten.clang"
  },
  "schemaVersion": "3.4.3",
  "updatedAt": "2021-11-09T08:40:38.131Z",
  "networkType": "ethereum",
  "devdoc": {
    "kind": "dev",
    "methods": {},
    "version": 1
  },
  "userdoc": {
    "kind": "user",
    "methods": {},
    "version": 1
  }
}