{
  "contractName": "Campaign",
  "abi": [
    {
      "inputs": [
        {
          "internalType": "string",
          "name": "_title",
          "type": "string"
        },
        {
          "internalType": "string",
          "name": "_description",
          "type": "string"
        },
        {
          "internalType": "uint256",
          "name": "_fundingGoal",
          "type": "uint256"
        },
        {
          "internalType": "uint256",
          "name": "_minimumContribution",
          "type": "uint256"
        },
        {
          "internalType": "string",
          "name": "_imageURL",
          "type": "string"
        },
        {
          "internalType": "address",
          "name": "_owner",
          "type": "address"
        }
      ],
      "stateMutability": "nonpayable",
      "type": "constructor"
    },
    {
      "inputs": [],
      "name": "description",
      "outputs": [
        {
          "internalType": "string",
          "name": "",
          "type": "string"
        }
      ],
      "stateMutability": "view",
      "type": "function"
    },
    {
      "inputs": [],
      "name": "fundingGoal",
      "outputs": [
        {
          "internalType": "uint256",
          "name": "",
          "type": "uint256"
        }
      ],
      "stateMutability": "view",
      "type": "function"
    },
    {
      "inputs": [],
      "name": "imageURL",
      "outputs": [
        {
          "internalType": "string",
          "name": "",
          "type": "string"
        }
      ],
      "stateMutability": "view",
      "type": "function"
    },
    {
      "inputs": [],
      "name": "minimumContribution",
      "outputs": [
        {
          "internalType": "uint256",
          "name": "",
          "type": "uint256"
        }
      ],
      "stateMutability": "view",
      "type": "function"
    },
    {
      "inputs": [],
      "name": "owner",
      "outputs": [
        {
          "internalType": "address",
          "name": "",
          "type": "address"
        }
      ],
      "stateMutability": "view",
      "type": "function"
    },
    {
      "inputs": [],
      "name": "title",
      "outputs": [
        {
          "internalType": "string",
          "name": "",
          "type": "string"
        }
      ],
      "stateMutability": "view",
      "type": "function"
    },
    {
      "inputs": [],
      "name": "totalFundingRecieved",
      "outputs": [
        {
          "internalType": "uint256",
          "name": "",
          "type": "uint256"
        }
      ],
      "stateMutability": "view",
      "type": "function"
    },
    {
      "inputs": [
        {
          "internalType": "uint256",
          "name": "_amount",
          "type": "uint256"
        }
      ],
      "name": "fund",
      "outputs": [],
      "stateMutability": "payable",
      "type": "function"
    },
    {
      "inputs": [
        {
          "internalType": "string",
          "name": "_description",
          "type": "string"
        },
        {
          "internalType": "uint256",
          "name": "_amount",
          "type": "uint256"
        },
        {
          "internalType": "address",
          "name": "_recipient",
          "type": "address"
        }
      ],
      "name": "createExpenditureRequest",
      "outputs": [],
      "stateMutability": "nonpayable",
      "type": "function"
    },
    {
      "inputs": [
        {
          "internalType": "uint256",
          "name": "_index",
          "type": "uint256"
        }
      ],
      "name": "approveExpenditureRequest",
      "outputs": [],
      "stateMutability": "nonpayable",
      "type": "function"
    },
    {
      "inputs": [
        {
          "internalType": "uint256",
          "name": "_index",
          "type": "uint256"
        }
      ],
      "name": "finalizeExpenditureRequest",
      "outputs": [],
      "stateMutability": "nonpayable",
      "type": "function"
    },
    {
      "inputs": [],
      "name": "getDetails",
      "outputs": [
        {
          "internalType": "string",
          "name": "",
          "type": "string"
        },
        {
          "internalType": "string",
          "name": "",
          "type": "string"
        },
        {
          "internalType": "uint256",
          "name": "",
          "type": "uint256"
        },
        {
          "internalType": "uint256",
          "name": "",
          "type": "uint256"
        },
        {
          "internalType": "string",
          "name": "",
          "type": "string"
        },
        {
          "internalType": "uint256",
          "name": "",
          "type": "uint256"
        },
        {
          "internalType": "address",
          "name": "",
          "type": "address"
        },
        {
          "internalType": "address",
          "name": "",
          "type": "address"
        }
      ],
      "stateMutability": "view",
      "type": "function"
    }
  ],
  "bytecode": "0x60806040523480156200001157600080fd5b506040516200107738038062001077833981810160405281019062000037919062000239565b85600090805190602001906200004f929190620000dd565b50846001908051906020019062000068929190620000dd565b50836002819055508260048190555081600590805190602001906200008f929190620000dd565b5080600660006101000a81548173ffffffffffffffffffffffffffffffffffffffff021916908373ffffffffffffffffffffffffffffffffffffffff16021790555050505050505062000528565b828054620000eb9062000405565b90600052602060002090601f0160209004810192826200010f57600085556200015b565b82601f106200012a57805160ff19168380011785556200015b565b828001600101855582156200015b579182015b828111156200015a5782518255916020019190600101906200013d565b5b5090506200016a91906200016e565b5090565b5b80821115620001895760008160009055506001016200016f565b5090565b6000620001a46200019e846200035b565b62000332565b905082815260208101848484011115620001c357620001c2620004d4565b5b620001d0848285620003cf565b509392505050565b600081519050620001e981620004f4565b92915050565b600082601f830112620002075762000206620004cf565b5b8151620002198482602086016200018d565b91505092915050565b60008151905062000233816200050e565b92915050565b60008060008060008060c08789031215620002595762000258620004de565b5b600087015167ffffffffffffffff8111156200027a5762000279620004d9565b5b6200028889828a01620001ef565b965050602087015167ffffffffffffffff811115620002ac57620002ab620004d9565b5b620002ba89828a01620001ef565b9550506040620002cd89828a0162000222565b9450506060620002e089828a0162000222565b935050608087015167ffffffffffffffff811115620003045762000303620004d9565b5b6200031289828a01620001ef565b92505060a06200032589828a01620001d8565b9150509295509295509295565b60006200033e62000351565b90506200034c82826200043b565b919050565b6000604051905090565b600067ffffffffffffffff821115620003795762000378620004a0565b5b6200038482620004e3565b9050602081019050919050565b60006200039e82620003a5565b9050919050565b600073ffffffffffffffffffffffffffffffffffffffff82169050919050565b6000819050919050565b60005b83811015620003ef578082015181840152602081019050620003d2565b83811115620003ff576000848401525b50505050565b600060028204905060018216806200041e57607f821691505b6020821081141562000435576200043462000471565b5b50919050565b6200044682620004e3565b810181811067ffffffffffffffff82111715620004685762000467620004a0565b5b80604052505050565b7f4e487b7100000000000000000000000000000000000000000000000000000000600052602260045260246000fd5b7f4e487b7100000000000000000000000000000000000000000000000000000000600052604160045260246000fd5b600080fd5b600080fd5b600080fd5b600080fd5b6000601f19601f8301169050919050565b620004ff8162000391565b81146200050b57600080fd5b50565b6200051981620003c5565b81146200052557600080fd5b50565b610b3f80620005386000396000f3fe6080604052600436106100a75760003560e01c80638da5cb5b116100645780638da5cb5b146101aa578063937e09b1146101d5578063b90497e014610200578063ca1d209d1461022b578063cb6a912214610247578063fbbf93a014610270576100a7565b80634a79d50c146100ac578063572d5423146100d757806367bee3d0146101005780636d210c381461012b5780637284e416146101545780637a3a0e841461017f575b600080fd5b3480156100b857600080fd5b506100c16102a2565b6040516100ce9190610835565b60405180910390f35b3480156100e357600080fd5b506100fe60048036038101906100f99190610796565b610330565b005b34801561010c57600080fd5b50610115610333565b60405161012291906108ea565b60405180910390f35b34801561013757600080fd5b50610152600480360381019061014d9190610727565b610339565b005b34801561016057600080fd5b5061016961033e565b6040516101769190610835565b60405180910390f35b34801561018b57600080fd5b506101946103cc565b6040516101a191906108ea565b60405180910390f35b3480156101b657600080fd5b506101bf6103d2565b6040516101cc919061081a565b60405180910390f35b3480156101e157600080fd5b506101ea6103f8565b6040516101f791906108ea565b60405180910390f35b34801561020c57600080fd5b506102156103fe565b6040516102229190610835565b60405180910390f35b61024560048036038101906102409190610796565b61048c565b005b34801561025357600080fd5b5061026e60048036038101906102699190610796565b61048f565b005b34801561027c57600080fd5b50610285610492565b604051610299989796959493929190610857565b60405180910390f35b600080546102af906109f5565b80601f01602080910402602001604051908101604052809291908181526020018280546102db906109f5565b80156103285780601f106102fd57610100808354040283529160200191610328565b820191906000526020600020905b81548152906001019060200180831161030b57829003601f168201915b505050505081565b50565b60035481565b505050565b6001805461034b906109f5565b80601f0160208091040260200160405190810160405280929190818152602001828054610377906109f5565b80156103c45780601f10610399576101008083540402835291602001916103c4565b820191906000526020600020905b8154815290600101906020018083116103a757829003601f168201915b505050505081565b60025481565b600660009054906101000a900473ffffffffffffffffffffffffffffffffffffffff1681565b60045481565b6005805461040b906109f5565b80601f0160208091040260200160405190810160405280929190818152602001828054610437906109f5565b80156104845780601f1061045957610100808354040283529160200191610484565b820191906000526020600020905b81548152906001019060200180831161046757829003601f168201915b505050505081565b50565b50565b6060806000806060600080600080600160025460045460054730600660009054906101000a900473ffffffffffffffffffffffffffffffffffffffff168780546104db906109f5565b80601f0160208091040260200160405190810160405280929190818152602001828054610507906109f5565b80156105545780601f1061052957610100808354040283529160200191610554565b820191906000526020600020905b81548152906001019060200180831161053757829003601f168201915b50505050509750868054610567906109f5565b80601f0160208091040260200160405190810160405280929190818152602001828054610593906109f5565b80156105e05780601f106105b5576101008083540402835291602001916105e0565b820191906000526020600020905b8154815290600101906020018083116105c357829003601f168201915b505050505096508380546105f3906109f5565b80601f016020809104026020016040519081016040528092919081815260200182805461061f906109f5565b801561066c5780601f106106415761010080835404028352916020019161066c565b820191906000526020600020905b81548152906001019060200180831161064f57829003601f168201915b50505050509350975097509750975097509750975097509091929394959697565b60006106a061069b8461092a565b610905565b9050828152602081018484840111156106bc576106bb610abb565b5b6106c78482856109b3565b509392505050565b6000813590506106de81610adb565b92915050565b600082601f8301126106f9576106f8610ab6565b5b813561070984826020860161068d565b91505092915050565b60008135905061072181610af2565b92915050565b6000806000606084860312156107405761073f610ac5565b5b600084013567ffffffffffffffff81111561075e5761075d610ac0565b5b61076a868287016106e4565b935050602061077b86828701610712565b925050604061078c868287016106cf565b9150509250925092565b6000602082840312156107ac576107ab610ac5565b5b60006107ba84828501610712565b91505092915050565b6107cc81610977565b82525050565b60006107dd8261095b565b6107e78185610966565b93506107f78185602086016109c2565b61080081610aca565b840191505092915050565b610814816109a9565b82525050565b600060208201905061082f60008301846107c3565b92915050565b6000602082019050818103600083015261084f81846107d2565b905092915050565b6000610100820190508181036000830152610872818b6107d2565b90508181036020830152610886818a6107d2565b9050610895604083018961080b565b6108a2606083018861080b565b81810360808301526108b481876107d2565b90506108c360a083018661080b565b6108d060c08301856107c3565b6108dd60e08301846107c3565b9998505050505050505050565b60006020820190506108ff600083018461080b565b92915050565b600061090f610920565b905061091b8282610a27565b919050565b6000604051905090565b600067ffffffffffffffff82111561094557610944610a87565b5b61094e82610aca565b9050602081019050919050565b600081519050919050565b600082825260208201905092915050565b600061098282610989565b9050919050565b600073ffffffffffffffffffffffffffffffffffffffff82169050919050565b6000819050919050565b82818337600083830152505050565b60005b838110156109e05780820151818401526020810190506109c5565b838111156109ef576000848401525b50505050565b60006002820490506001821680610a0d57607f821691505b60208210811415610a2157610a20610a58565b5b50919050565b610a3082610aca565b810181811067ffffffffffffffff82111715610a4f57610a4e610a87565b5b80604052505050565b7f4e487b7100000000000000000000000000000000000000000000000000000000600052602260045260246000fd5b7f4e487b7100000000000000000000000000000000000000000000000000000000600052604160045260246000fd5b600080fd5b600080fd5b600080fd5b600080fd5b6000601f19601f8301169050919050565b610ae481610977565b8114610aef57600080fd5b50565b610afb816109a9565b8114610b0657600080fd5b5056fea2646970667358221220db4472c1671b6e96465d8dc97d997b23f4f6131b044a703e0a0aeb8724d1c45f64736f6c63430008070033",
  "immutableReferences": {},
  "source": "// SPDX-License-Identifier: MIT\npragma solidity 0.8.7;\n\ncontract Campaign {\n    string public title;\n    string public description;\n    uint256 public fundingGoal;\n    uint256 public totalFundingRecieved;\n    uint256 public minimumContribution;\n    string public imageURL;\n    address public owner;\n\n    constructor(\n        string memory _title,\n        string memory _description,\n        uint256 _fundingGoal,\n        uint256 _minimumContribution,\n        string memory _imageURL,\n        address _owner\n    ) {\n        title = _title;\n        description = _description;\n        fundingGoal = _fundingGoal;\n        minimumContribution = _minimumContribution;\n        imageURL = _imageURL;\n        owner = _owner;\n    }\n\n    function fund(uint256 _amount) public payable {\n        // Fund the campaign should be equal to or more than min. contribution\n    }\n\n    function createExpenditureRequest(\n        string memory _description,\n        uint256 _amount,\n        address _recipient\n    ) public {\n        // Create an expenditure request that will need to be approved by the backers.\n    }\n\n    function approveExpenditureRequest(uint256 _index) public {\n        // Allows the backer to approve the expenditure\n    }\n\n    function finalizeExpenditureRequest(uint256 _index) public {\n        // check request has been approved by more than 50% of the backers\n        // transfer funds to the recipent\n        // mark request as complete\n    }\n\n    function getDetails()\n        public\n        view\n        returns (\n            string memory,\n            string memory,\n            uint256,\n            uint256,\n            string memory,\n            uint256,\n            address,\n            address\n        )\n    {\n        return (\n            title,\n            description,\n            fundingGoal,\n            minimumContribution,\n            imageURL,\n            address(this).balance,\n            address(this),\n            owner\n        );\n    }\n}\n",
  "sourcePath": "/home/alex/Code/LearningBlockchain/Consensys/blockchain-developer-bootcamp-final-project/contracts/Campaign.sol",
  "compiler": {
    "name": "solc",
    "version": "0.8.7+commit.e28d00a7.Emscripten.clang"
  },
  "schemaVersion": "3.4.3",
  "updatedAt": "2021-11-12T19:55:21.204Z",
  "devdoc": {
    "kind": "dev",
    "methods": {},
    "version": 1
  },
  "userdoc": {
    "kind": "user",
    "methods": {},
    "version": 1
  }
}