{
  "contractName": "Campaign",
  "abi": [
    {
      "inputs": [
        {
          "internalType": "string",
          "name": "_title",
          "type": "string"
        },
        {
          "internalType": "string",
          "name": "_description",
          "type": "string"
        },
        {
          "internalType": "uint256",
          "name": "_fundingGoal",
          "type": "uint256"
        },
        {
          "internalType": "uint256",
          "name": "_minimumContribution",
          "type": "uint256"
        },
        {
          "internalType": "address",
          "name": "_owner",
          "type": "address"
        }
      ],
      "stateMutability": "nonpayable",
      "type": "constructor"
    },
    {
      "inputs": [],
      "name": "description",
      "outputs": [
        {
          "internalType": "string",
          "name": "",
          "type": "string"
        }
      ],
      "stateMutability": "view",
      "type": "function"
    },
    {
      "inputs": [],
      "name": "fundingGoal",
      "outputs": [
        {
          "internalType": "uint256",
          "name": "",
          "type": "uint256"
        }
      ],
      "stateMutability": "view",
      "type": "function"
    },
    {
      "inputs": [],
      "name": "minimumContribution",
      "outputs": [
        {
          "internalType": "uint256",
          "name": "",
          "type": "uint256"
        }
      ],
      "stateMutability": "view",
      "type": "function"
    },
    {
      "inputs": [],
      "name": "owner",
      "outputs": [
        {
          "internalType": "address",
          "name": "",
          "type": "address"
        }
      ],
      "stateMutability": "view",
      "type": "function"
    },
    {
      "inputs": [],
      "name": "title",
      "outputs": [
        {
          "internalType": "string",
          "name": "",
          "type": "string"
        }
      ],
      "stateMutability": "view",
      "type": "function"
    },
    {
      "inputs": [],
      "name": "totalFundingRecieved",
      "outputs": [
        {
          "internalType": "uint256",
          "name": "",
          "type": "uint256"
        }
      ],
      "stateMutability": "view",
      "type": "function"
    },
    {
      "inputs": [
        {
          "internalType": "uint256",
          "name": "_amount",
          "type": "uint256"
        }
      ],
      "name": "fund",
      "outputs": [],
      "stateMutability": "payable",
      "type": "function"
    },
    {
      "inputs": [
        {
          "internalType": "string",
          "name": "_description",
          "type": "string"
        },
        {
          "internalType": "uint256",
          "name": "_amount",
          "type": "uint256"
        },
        {
          "internalType": "address",
          "name": "_recipient",
          "type": "address"
        }
      ],
      "name": "createExpenditureRequest",
      "outputs": [],
      "stateMutability": "nonpayable",
      "type": "function"
    },
    {
      "inputs": [
        {
          "internalType": "uint256",
          "name": "_index",
          "type": "uint256"
        }
      ],
      "name": "approveExpenditureRequest",
      "outputs": [],
      "stateMutability": "nonpayable",
      "type": "function"
    },
    {
      "inputs": [
        {
          "internalType": "uint256",
          "name": "_index",
          "type": "uint256"
        }
      ],
      "name": "finalizeExpenditureRequest",
      "outputs": [],
      "stateMutability": "nonpayable",
      "type": "function"
    },
    {
      "inputs": [],
      "name": "getDetails",
      "outputs": [
        {
          "internalType": "string",
          "name": "",
          "type": "string"
        },
        {
          "internalType": "string",
          "name": "",
          "type": "string"
        },
        {
          "internalType": "uint256",
          "name": "",
          "type": "uint256"
        },
        {
          "internalType": "uint256",
          "name": "",
          "type": "uint256"
        },
        {
          "internalType": "uint256",
          "name": "",
          "type": "uint256"
        },
        {
          "internalType": "address",
          "name": "",
          "type": "address"
        },
        {
          "internalType": "address",
          "name": "",
          "type": "address"
        }
      ],
      "stateMutability": "view",
      "type": "function"
    }
  ],
  "bytecode": "0x60806040523480156200001157600080fd5b5060405162000ebc38038062000ebc83398181016040528101906200003791906200021f565b84600090805190602001906200004f929190620000c3565b50836001908051906020019062000068929190620000c3565b50826002819055508160048190555080600560006101000a81548173ffffffffffffffffffffffffffffffffffffffff021916908373ffffffffffffffffffffffffffffffffffffffff1602179055505050505050620004db565b828054620000d190620003b8565b90600052602060002090601f016020900481019282620000f5576000855562000141565b82601f106200011057805160ff191683800117855562000141565b8280016001018555821562000141579182015b828111156200014057825182559160200191906001019062000123565b5b50905062000150919062000154565b5090565b5b808211156200016f57600081600090555060010162000155565b5090565b60006200018a62000184846200030e565b620002e5565b905082815260208101848484011115620001a957620001a862000487565b5b620001b684828562000382565b509392505050565b600081519050620001cf81620004a7565b92915050565b600082601f830112620001ed57620001ec62000482565b5b8151620001ff84826020860162000173565b91505092915050565b6000815190506200021981620004c1565b92915050565b600080600080600060a086880312156200023e576200023d62000491565b5b600086015167ffffffffffffffff8111156200025f576200025e6200048c565b5b6200026d88828901620001d5565b955050602086015167ffffffffffffffff8111156200029157620002906200048c565b5b6200029f88828901620001d5565b9450506040620002b28882890162000208565b9350506060620002c58882890162000208565b9250506080620002d888828901620001be565b9150509295509295909350565b6000620002f162000304565b9050620002ff8282620003ee565b919050565b6000604051905090565b600067ffffffffffffffff8211156200032c576200032b62000453565b5b620003378262000496565b9050602081019050919050565b6000620003518262000358565b9050919050565b600073ffffffffffffffffffffffffffffffffffffffff82169050919050565b6000819050919050565b60005b83811015620003a257808201518184015260208101905062000385565b83811115620003b2576000848401525b50505050565b60006002820490506001821680620003d157607f821691505b60208210811415620003e857620003e762000424565b5b50919050565b620003f98262000496565b810181811067ffffffffffffffff821117156200041b576200041a62000453565b5b80604052505050565b7f4e487b7100000000000000000000000000000000000000000000000000000000600052602260045260246000fd5b7f4e487b7100000000000000000000000000000000000000000000000000000000600052604160045260246000fd5b600080fd5b600080fd5b600080fd5b600080fd5b6000601f19601f8301169050919050565b620004b28162000344565b8114620004be57600080fd5b50565b620004cc8162000378565b8114620004d857600080fd5b50565b6109d180620004eb6000396000f3fe60806040526004361061009c5760003560e01c80637a3a0e84116100645780637a3a0e84146101745780638da5cb5b1461019f578063937e09b1146101ca578063ca1d209d146101f5578063cb6a912214610211578063fbbf93a01461023a5761009c565b80634a79d50c146100a1578063572d5423146100cc57806367bee3d0146100f55780636d210c38146101205780637284e41614610149575b600080fd5b3480156100ad57600080fd5b506100b661026b565b6040516100c391906106dd565b60405180910390f35b3480156100d857600080fd5b506100f360048036038101906100ee919061063e565b6102f9565b005b34801561010157600080fd5b5061010a6102fc565b604051610117919061077c565b60405180910390f35b34801561012c57600080fd5b50610147600480360381019061014291906105cf565b610302565b005b34801561015557600080fd5b5061015e610307565b60405161016b91906106dd565b60405180910390f35b34801561018057600080fd5b50610189610395565b604051610196919061077c565b60405180910390f35b3480156101ab57600080fd5b506101b461039b565b6040516101c191906106c2565b60405180910390f35b3480156101d657600080fd5b506101df6103c1565b6040516101ec919061077c565b60405180910390f35b61020f600480360381019061020a919061063e565b6103c7565b005b34801561021d57600080fd5b506102386004803603810190610233919061063e565b6103ca565b005b34801561024657600080fd5b5061024f6103cd565b60405161026297969594939291906106ff565b60405180910390f35b6000805461027890610887565b80601f01602080910402602001604051908101604052809291908181526020018280546102a490610887565b80156102f15780601f106102c6576101008083540402835291602001916102f1565b820191906000526020600020905b8154815290600101906020018083116102d457829003601f168201915b505050505081565b50565b60035481565b505050565b6001805461031490610887565b80601f016020809104026020016040519081016040528092919081815260200182805461034090610887565b801561038d5780601f106103625761010080835404028352916020019161038d565b820191906000526020600020905b81548152906001019060200180831161037057829003601f168201915b505050505081565b60025481565b600560009054906101000a900473ffffffffffffffffffffffffffffffffffffffff1681565b60045481565b50565b50565b60608060008060008060008060016002546004544730600560009054906101000a900473ffffffffffffffffffffffffffffffffffffffff1686805461041290610887565b80601f016020809104026020016040519081016040528092919081815260200182805461043e90610887565b801561048b5780601f106104605761010080835404028352916020019161048b565b820191906000526020600020905b81548152906001019060200180831161046e57829003601f168201915b5050505050965085805461049e90610887565b80601f01602080910402602001604051908101604052809291908181526020018280546104ca90610887565b80156105175780601f106104ec57610100808354040283529160200191610517565b820191906000526020600020905b8154815290600101906020018083116104fa57829003601f168201915b50505050509550965096509650965096509650965090919293949596565b6000610548610543846107bc565b610797565b9050828152602081018484840111156105645761056361094d565b5b61056f848285610845565b509392505050565b6000813590506105868161096d565b92915050565b600082601f8301126105a1576105a0610948565b5b81356105b1848260208601610535565b91505092915050565b6000813590506105c981610984565b92915050565b6000806000606084860312156105e8576105e7610957565b5b600084013567ffffffffffffffff81111561060657610605610952565b5b6106128682870161058c565b9350506020610623868287016105ba565b925050604061063486828701610577565b9150509250925092565b60006020828403121561065457610653610957565b5b6000610662848285016105ba565b91505092915050565b61067481610809565b82525050565b6000610685826107ed565b61068f81856107f8565b935061069f818560208601610854565b6106a88161095c565b840191505092915050565b6106bc8161083b565b82525050565b60006020820190506106d7600083018461066b565b92915050565b600060208201905081810360008301526106f7818461067a565b905092915050565b600060e0820190508181036000830152610719818a61067a565b9050818103602083015261072d818961067a565b905061073c60408301886106b3565b61074960608301876106b3565b61075660808301866106b3565b61076360a083018561066b565b61077060c083018461066b565b98975050505050505050565b600060208201905061079160008301846106b3565b92915050565b60006107a16107b2565b90506107ad82826108b9565b919050565b6000604051905090565b600067ffffffffffffffff8211156107d7576107d6610919565b5b6107e08261095c565b9050602081019050919050565b600081519050919050565b600082825260208201905092915050565b60006108148261081b565b9050919050565b600073ffffffffffffffffffffffffffffffffffffffff82169050919050565b6000819050919050565b82818337600083830152505050565b60005b83811015610872578082015181840152602081019050610857565b83811115610881576000848401525b50505050565b6000600282049050600182168061089f57607f821691505b602082108114156108b3576108b26108ea565b5b50919050565b6108c28261095c565b810181811067ffffffffffffffff821117156108e1576108e0610919565b5b80604052505050565b7f4e487b7100000000000000000000000000000000000000000000000000000000600052602260045260246000fd5b7f4e487b7100000000000000000000000000000000000000000000000000000000600052604160045260246000fd5b600080fd5b600080fd5b600080fd5b600080fd5b6000601f19601f8301169050919050565b61097681610809565b811461098157600080fd5b50565b61098d8161083b565b811461099857600080fd5b5056fea2646970667358221220df4fa3347137e8be987933cefab1389d62cb45fb7bc29c8e99b04934d4b0c06264736f6c63430008070033",
  "immutableReferences": {},
  "source": "// SPDX-License-Identifier: MIT\npragma solidity 0.8.7;\n\ncontract Campaign {\n    string public title;\n    string public description;\n    uint256 public fundingGoal;\n    uint256 public totalFundingRecieved;\n    uint256 public minimumContribution;\n    address public owner;\n\n    constructor(\n        string memory _title,\n        string memory _description,\n        uint256 _fundingGoal,\n        uint256 _minimumContribution,\n        address _owner\n    ) {\n        title = _title;\n        description = _description;\n        fundingGoal = _fundingGoal;\n        minimumContribution = _minimumContribution;\n        owner = _owner;\n    }\n\n    function fund(uint256 _amount) public payable {\n        // Fund the campaign should be equal to or more than min. contribution\n    }\n\n    function createExpenditureRequest(\n        string memory _description,\n        uint256 _amount,\n        address _recipient\n    ) public {\n        // Create an expenditure request that will need to be approved by the backers.\n    }\n\n    function approveExpenditureRequest(uint256 _index) public {\n        // Allows the backer to approve the expenditure\n    }\n\n    function finalizeExpenditureRequest(uint256 _index) public {\n        // check request has been approved by more than 50% of the backers\n        // transfer funds to the recipent\n        // mark request as complete\n    }\n\n    function getDetails()\n        public\n        view\n        returns (\n            string memory,\n            string memory,\n            uint256,\n            uint256,\n            uint256,\n            address,\n            address\n        )\n    {\n        return (\n            title,\n            description,\n            fundingGoal,\n            minimumContribution,\n            address(this).balance,\n            address(this),\n            owner\n        );\n    }\n}\n",
  "sourcePath": "/home/alex/Code/LearningBlockchain/Consensys/blockchain-developer-bootcamp-final-project/contracts/Campaign.sol",
  "compiler": {
    "name": "solc",
    "version": "0.8.7+commit.e28d00a7.Emscripten.clang"
  },
  "schemaVersion": "3.4.3",
  "updatedAt": "2021-11-10T20:14:30.655Z",
  "devdoc": {
    "kind": "dev",
    "methods": {},
    "version": 1
  },
  "userdoc": {
    "kind": "user",
    "methods": {},
    "version": 1
  }
}