{
  "contractName": "CampaignFactory",
  "abi": [
    {
      "inputs": [
        {
          "internalType": "uint256",
          "name": "",
          "type": "uint256"
        }
      ],
      "name": "campaigns",
      "outputs": [
        {
          "internalType": "address",
          "name": "",
          "type": "address"
        }
      ],
      "stateMutability": "view",
      "type": "function",
      "constant": true
    },
    {
      "inputs": [
        {
          "internalType": "string",
          "name": "_title",
          "type": "string"
        },
        {
          "internalType": "string",
          "name": "_description",
          "type": "string"
        },
        {
          "internalType": "uint256",
          "name": "_fundingGoal",
          "type": "uint256"
        },
        {
          "internalType": "uint256",
          "name": "_minimumContribution",
          "type": "uint256"
        },
        {
          "internalType": "string",
          "name": "_imageUrl",
          "type": "string"
        }
      ],
      "name": "createCampaign",
      "outputs": [],
      "stateMutability": "nonpayable",
      "type": "function"
    },
    {
      "inputs": [],
      "name": "getCampaigns",
      "outputs": [
        {
          "internalType": "address[]",
          "name": "",
          "type": "address[]"
        }
      ],
      "stateMutability": "view",
      "type": "function",
      "constant": true
    }
  ],
  "bytecode": "0x608060405234801561001057600080fd5b50611ae9806100206000396000f3fe60806040523480156200001157600080fd5b5060043610620000465760003560e01c8063141961bc146200004b578063a6b036331462000081578063d4e3dd6f14620000a3575b600080fd5b620000696004803603810190620000639190620003cd565b620000c3565b604051620000789190620004f7565b60405180910390f35b6200008b62000103565b6040516200009a919062000514565b60405180910390f35b620000c16004803603810190620000bb9190620002e8565b62000193565b005b60008181548110620000d457600080fd5b906000526020600020016000915054906101000a900473ffffffffffffffffffffffffffffffffffffffff1681565b606060008054806020026020016040519081016040528092919081815260200182805480156200018957602002820191906000526020600020905b8160009054906101000a900473ffffffffffffffffffffffffffffffffffffffff1673ffffffffffffffffffffffffffffffffffffffff16815260200190600101908083116200013e575b5050505050905090565b6000858585858533604051620001a99062000245565b620001ba9695949392919062000538565b604051809103906000f080158015620001d7573d6000803e3d6000fd5b5090506000819080600181540180825580915050600190039060005260206000200160009091909190916101000a81548173ffffffffffffffffffffffffffffffffffffffff021916908373ffffffffffffffffffffffffffffffffffffffff160217905550505050505050565b61131e806200079683390190565b60006200026a6200026484620005e3565b620005ba565b9050828152602081018484840111156200028957620002886200075b565b5b62000296848285620006ac565b509392505050565b600082601f830112620002b657620002b562000756565b5b8135620002c884826020860162000253565b91505092915050565b600081359050620002e2816200077b565b92915050565b600080600080600060a0868803121562000307576200030662000765565b5b600086013567ffffffffffffffff81111562000328576200032762000760565b5b62000336888289016200029e565b955050602086013567ffffffffffffffff8111156200035a576200035962000760565b5b62000368888289016200029e565b94505060406200037b88828901620002d1565b93505060606200038e88828901620002d1565b925050608086013567ffffffffffffffff811115620003b257620003b162000760565b5b620003c0888289016200029e565b9150509295509295909350565b600060208284031215620003e657620003e562000765565b5b6000620003f684828501620002d1565b91505092915050565b60006200040d838362000419565b60208301905092915050565b62000424816200066e565b82525050565b62000435816200066e565b82525050565b6000620004488262000629565b6200045481856200064c565b9350620004618362000619565b8060005b83811015620004985781516200047c8882620003ff565b975062000489836200063f565b92505060018101905062000465565b5085935050505092915050565b6000620004b28262000634565b620004be81856200065d565b9350620004d0818560208601620006bb565b620004db816200076a565b840191505092915050565b620004f181620006a2565b82525050565b60006020820190506200050e60008301846200042a565b92915050565b600060208201905081810360008301526200053081846200043b565b905092915050565b600060c0820190508181036000830152620005548189620004a5565b905081810360208301526200056a8188620004a5565b90506200057b6040830187620004e6565b6200058a6060830186620004e6565b81810360808301526200059e8185620004a5565b9050620005af60a08301846200042a565b979650505050505050565b6000620005c6620005d9565b9050620005d48282620006f1565b919050565b6000604051905090565b600067ffffffffffffffff82111562000601576200060062000727565b5b6200060c826200076a565b9050602081019050919050565b6000819050602082019050919050565b600081519050919050565b600081519050919050565b6000602082019050919050565b600082825260208201905092915050565b600082825260208201905092915050565b60006200067b8262000682565b9050919050565b600073ffffffffffffffffffffffffffffffffffffffff82169050919050565b6000819050919050565b82818337600083830152505050565b60005b83811015620006db578082015181840152602081019050620006be565b83811115620006eb576000848401525b50505050565b620006fc826200076a565b810181811067ffffffffffffffff821117156200071e576200071d62000727565b5b80604052505050565b7f4e487b7100000000000000000000000000000000000000000000000000000000600052604160045260246000fd5b600080fd5b600080fd5b600080fd5b600080fd5b6000601f19601f8301169050919050565b6200078681620006a2565b81146200079257600080fd5b5056fe60806040523480156200001157600080fd5b506040516200131e3803806200131e833981810160405281019062000037919062000240565b85600090805190602001906200004f929190620000e4565b50846001908051906020019062000068929190620000e4565b50836002819055508260048190555081600590805190602001906200008f929190620000e4565b5080600660006101000a81548173ffffffffffffffffffffffffffffffffffffffff021916908373ffffffffffffffffffffffffffffffffffffffff160217905550426009819055505050505050506200052f565b828054620000f2906200040c565b90600052602060002090601f01602090048101928262000116576000855562000162565b82601f106200013157805160ff191683800117855562000162565b8280016001018555821562000162579182015b828111156200016157825182559160200191906001019062000144565b5b50905062000171919062000175565b5090565b5b808211156200019057600081600090555060010162000176565b5090565b6000620001ab620001a58462000362565b62000339565b905082815260208101848484011115620001ca57620001c9620004db565b5b620001d7848285620003d6565b509392505050565b600081519050620001f081620004fb565b92915050565b600082601f8301126200020e576200020d620004d6565b5b81516200022084826020860162000194565b91505092915050565b6000815190506200023a8162000515565b92915050565b60008060008060008060c0878903121562000260576200025f620004e5565b5b600087015167ffffffffffffffff811115620002815762000280620004e0565b5b6200028f89828a01620001f6565b965050602087015167ffffffffffffffff811115620002b357620002b2620004e0565b5b620002c189828a01620001f6565b9550506040620002d489828a0162000229565b9450506060620002e789828a0162000229565b935050608087015167ffffffffffffffff8111156200030b576200030a620004e0565b5b6200031989828a01620001f6565b92505060a06200032c89828a01620001df565b9150509295509295509295565b60006200034562000358565b905062000353828262000442565b919050565b6000604051905090565b600067ffffffffffffffff82111562000380576200037f620004a7565b5b6200038b82620004ea565b9050602081019050919050565b6000620003a582620003ac565b9050919050565b600073ffffffffffffffffffffffffffffffffffffffff82169050919050565b6000819050919050565b60005b83811015620003f6578082015181840152602081019050620003d9565b8381111562000406576000848401525b50505050565b600060028204905060018216806200042557607f821691505b602082108114156200043c576200043b62000478565b5b50919050565b6200044d82620004ea565b810181811067ffffffffffffffff821117156200046f576200046e620004a7565b5b80604052505050565b7f4e487b7100000000000000000000000000000000000000000000000000000000600052602260045260246000fd5b7f4e487b7100000000000000000000000000000000000000000000000000000000600052604160045260246000fd5b600080fd5b600080fd5b600080fd5b600080fd5b6000601f19601f8301169050919050565b620005068162000398565b81146200051257600080fd5b50565b6200052081620003cc565b81146200052c57600080fd5b50565b610ddf806200053f6000396000f3fe6080604052600436106100e85760003560e01c80638da5cb5b1161008a578063b85dfb8011610059578063b85dfb80146102a1578063b90497e0146102de578063cb6a912214610309578063fbbf93a014610332576100e8565b80638da5cb5b14610216578063937e09b114610241578063b60d42881461026c578063b80777ea14610276576100e8565b806367bee3d0116100c657806367bee3d01461016c5780636d210c38146101975780637284e416146101c05780637a3a0e84146101eb576100e8565b80631d565e78146100ed5780634a79d50c14610118578063572d542314610143575b600080fd5b3480156100f957600080fd5b50610102610366565b60405161010f9190610af9565b60405180910390f35b34801561012457600080fd5b5061012d61036c565b60405161013a9190610a26565b60405180910390f35b34801561014f57600080fd5b5061016a6004803603810190610165919061095d565b6103fa565b005b34801561017857600080fd5b506101816103fd565b60405161018e9190610af9565b60405180910390f35b3480156101a357600080fd5b506101be60048036038101906101b991906108ee565b610403565b005b3480156101cc57600080fd5b506101d5610408565b6040516101e29190610a26565b60405180910390f35b3480156101f757600080fd5b50610200610496565b60405161020d9190610af9565b60405180910390f35b34801561022257600080fd5b5061022b61049c565b60405161023891906109f0565b60405180910390f35b34801561024d57600080fd5b506102566104c2565b6040516102639190610af9565b60405180910390f35b6102746104c8565b005b34801561028257600080fd5b5061028b610563565b6040516102989190610af9565b60405180910390f35b3480156102ad57600080fd5b506102c860048036038101906102c391906108c1565b610569565b6040516102d59190610a0b565b60405180910390f35b3480156102ea57600080fd5b506102f3610589565b6040516103009190610a26565b60405180910390f35b34801561031557600080fd5b50610330600480360381019061032b919061095d565b610617565b005b34801561033e57600080fd5b5061034761061a565b60405161035d9a99989796959493929190610a48565b60405180910390f35b60085481565b6000805461037990610c66565b80601f01602080910402602001604051908101604052809291908181526020018280546103a590610c66565b80156103f25780601f106103c7576101008083540402835291602001916103f2565b820191906000526020600020905b8154815290600101906020018083116103d557829003601f168201915b505050505081565b50565b60035481565b505050565b6001805461041590610c66565b80601f016020809104026020016040519081016040528092919081815260200182805461044190610c66565b801561048e5780601f106104635761010080835404028352916020019161048e565b820191906000526020600020905b81548152906001019060200180831161047157829003601f168201915b505050505081565b60025481565b600660009054906101000a900473ffffffffffffffffffffffffffffffffffffffff1681565b60045481565b60045434116104d657600080fd5b6001600760003373ffffffffffffffffffffffffffffffffffffffff1673ffffffffffffffffffffffffffffffffffffffff16815260200190815260200160002060006101000a81548160ff0219169083151502179055506001600860008282546105419190610b86565b92505081905550346003600082825461055a9190610b86565b92505081905550565b60095481565b60076020528060005260406000206000915054906101000a900460ff1681565b6005805461059690610c66565b80601f01602080910402602001604051908101604052809291908181526020018280546105c290610c66565b801561060f5780601f106105e45761010080835404028352916020019161060f565b820191906000526020600020905b8154815290600101906020018083116105f257829003601f168201915b505050505081565b50565b6060806000806000606060008060008060006001600254600454600854600560035430600660009054906101000a900473ffffffffffffffffffffffffffffffffffffffff1660095489805461066f90610c66565b80601f016020809104026020016040519081016040528092919081815260200182805461069b90610c66565b80156106e85780601f106106bd576101008083540402835291602001916106e8565b820191906000526020600020905b8154815290600101906020018083116106cb57829003601f168201915b505050505099508880546106fb90610c66565b80601f016020809104026020016040519081016040528092919081815260200182805461072790610c66565b80156107745780601f1061074957610100808354040283529160200191610774565b820191906000526020600020905b81548152906001019060200180831161075757829003601f168201915b5050505050985084805461078790610c66565b80601f01602080910402602001604051908101604052809291908181526020018280546107b390610c66565b80156108005780601f106107d557610100808354040283529160200191610800565b820191906000526020600020905b8154815290600101906020018083116107e357829003601f168201915b50505050509450995099509950995099509950995099509950995090919293949596979899565b600061083a61083584610b39565b610b14565b90508281526020810184848401111561085657610855610d5b565b5b610861848285610c24565b509392505050565b60008135905061087881610d7b565b92915050565b600082601f83011261089357610892610d56565b5b81356108a3848260208601610827565b91505092915050565b6000813590506108bb81610d92565b92915050565b6000602082840312156108d7576108d6610d65565b5b60006108e584828501610869565b91505092915050565b60008060006060848603121561090757610906610d65565b5b600084013567ffffffffffffffff81111561092557610924610d60565b5b6109318682870161087e565b9350506020610942868287016108ac565b925050604061095386828701610869565b9150509250925092565b60006020828403121561097357610972610d65565b5b6000610981848285016108ac565b91505092915050565b61099381610bdc565b82525050565b6109a281610bee565b82525050565b60006109b382610b6a565b6109bd8185610b75565b93506109cd818560208601610c33565b6109d681610d6a565b840191505092915050565b6109ea81610c1a565b82525050565b6000602082019050610a05600083018461098a565b92915050565b6000602082019050610a206000830184610999565b92915050565b60006020820190508181036000830152610a4081846109a8565b905092915050565b6000610140820190508181036000830152610a63818d6109a8565b90508181036020830152610a77818c6109a8565b9050610a86604083018b6109e1565b610a93606083018a6109e1565b610aa060808301896109e1565b81810360a0830152610ab281886109a8565b9050610ac160c08301876109e1565b610ace60e083018661098a565b610adc61010083018561098a565b610aea6101208301846109e1565b9b9a5050505050505050505050565b6000602082019050610b0e60008301846109e1565b92915050565b6000610b1e610b2f565b9050610b2a8282610c98565b919050565b6000604051905090565b600067ffffffffffffffff821115610b5457610b53610d27565b5b610b5d82610d6a565b9050602081019050919050565b600081519050919050565b600082825260208201905092915050565b6000610b9182610c1a565b9150610b9c83610c1a565b9250827fffffffffffffffffffffffffffffffffffffffffffffffffffffffffffffffff03821115610bd157610bd0610cc9565b5b828201905092915050565b6000610be782610bfa565b9050919050565b60008115159050919050565b600073ffffffffffffffffffffffffffffffffffffffff82169050919050565b6000819050919050565b82818337600083830152505050565b60005b83811015610c51578082015181840152602081019050610c36565b83811115610c60576000848401525b50505050565b60006002820490506001821680610c7e57607f821691505b60208210811415610c9257610c91610cf8565b5b50919050565b610ca182610d6a565b810181811067ffffffffffffffff82111715610cc057610cbf610d27565b5b80604052505050565b7f4e487b7100000000000000000000000000000000000000000000000000000000600052601160045260246000fd5b7f4e487b7100000000000000000000000000000000000000000000000000000000600052602260045260246000fd5b7f4e487b7100000000000000000000000000000000000000000000000000000000600052604160045260246000fd5b600080fd5b600080fd5b600080fd5b600080fd5b6000601f19601f8301169050919050565b610d8481610bdc565b8114610d8f57600080fd5b50565b610d9b81610c1a565b8114610da657600080fd5b5056fea264697066735822122043719d9709b773f26a0df077227ee72fe69a91a36145cab11ede202730730f2564736f6c63430008070033a26469706673582212200ff2e7fbc26653827c4e39616bb90fb112d96c49e69a08dca54f3d2d3f3a90ce64736f6c63430008070033",
  "immutableReferences": {},
  "source": "// SPDX-License-Identifier: MIT\npragma solidity 0.8.7;\n\nimport \"./Campaign.sol\";\n\ncontract CampaignFactory {\n    address[] public campaigns;\n\n    function createCampaign(\n        string memory _title,\n        string memory _description,\n        uint256 _fundingGoal,\n        uint256 _minimumContribution,\n        string memory _imageUrl\n    ) public {\n        Campaign newCampaign = new Campaign(\n            _title,\n            _description,\n            _fundingGoal,\n            _minimumContribution,\n            _imageUrl,\n            msg.sender\n        );\n        campaigns.push(address(newCampaign));\n    }\n\n    function getCampaigns() public view returns (address[] memory) {\n        return campaigns;\n    }\n}\n",
  "sourcePath": "/home/alex/Code/LearningBlockchain/Consensys/blockchain-developer-bootcamp-final-project/contracts/CampaignFactory.sol",
  "compiler": {
    "name": "solc",
    "version": "0.8.7+commit.e28d00a7.Emscripten.clang"
  },
  "schemaVersion": "3.4.3",
  "updatedAt": "2021-11-14T11:40:26.896Z",
  "networkType": "ethereum",
  "devdoc": {
    "kind": "dev",
    "methods": {},
    "version": 1
  },
  "userdoc": {
    "kind": "user",
    "methods": {},
    "version": 1
  }
}