{
  "contractName": "Campaign",
  "abi": [
    {
      "inputs": [
        {
          "internalType": "string",
          "name": "_title",
          "type": "string"
        },
        {
          "internalType": "string",
          "name": "_description",
          "type": "string"
        },
        {
          "internalType": "uint256",
          "name": "_fundingGoal",
          "type": "uint256"
        },
        {
          "internalType": "uint256",
          "name": "_minimumContribution",
          "type": "uint256"
        },
        {
          "internalType": "string",
          "name": "_imageURL",
          "type": "string"
        },
        {
          "internalType": "address",
          "name": "_owner",
          "type": "address"
        }
      ],
      "stateMutability": "nonpayable",
      "type": "constructor"
    },
    {
      "inputs": [
        {
          "internalType": "address",
          "name": "",
          "type": "address"
        }
      ],
      "name": "backers",
      "outputs": [
        {
          "internalType": "bool",
          "name": "",
          "type": "bool"
        }
      ],
      "stateMutability": "view",
      "type": "function"
    },
    {
      "inputs": [],
      "name": "backersCount",
      "outputs": [
        {
          "internalType": "uint256",
          "name": "",
          "type": "uint256"
        }
      ],
      "stateMutability": "view",
      "type": "function"
    },
    {
      "inputs": [],
      "name": "description",
      "outputs": [
        {
          "internalType": "string",
          "name": "",
          "type": "string"
        }
      ],
      "stateMutability": "view",
      "type": "function"
    },
    {
      "inputs": [
        {
          "internalType": "uint256",
          "name": "",
          "type": "uint256"
        }
      ],
      "name": "expenditureRequests",
      "outputs": [
        {
          "internalType": "string",
          "name": "description",
          "type": "string"
        },
        {
          "internalType": "uint256",
          "name": "value",
          "type": "uint256"
        },
        {
          "internalType": "address",
          "name": "recipient",
          "type": "address"
        },
        {
          "internalType": "bool",
          "name": "complete",
          "type": "bool"
        },
        {
          "internalType": "uint256",
          "name": "approvalCount",
          "type": "uint256"
        }
      ],
      "stateMutability": "view",
      "type": "function"
    },
    {
      "inputs": [],
      "name": "expenditureRequestsCount",
      "outputs": [
        {
          "internalType": "uint256",
          "name": "",
          "type": "uint256"
        }
      ],
      "stateMutability": "view",
      "type": "function"
    },
    {
      "inputs": [],
      "name": "fundingGoal",
      "outputs": [
        {
          "internalType": "uint256",
          "name": "",
          "type": "uint256"
        }
      ],
      "stateMutability": "view",
      "type": "function"
    },
    {
      "inputs": [],
      "name": "imageURL",
      "outputs": [
        {
          "internalType": "string",
          "name": "",
          "type": "string"
        }
      ],
      "stateMutability": "view",
      "type": "function"
    },
    {
      "inputs": [],
      "name": "minimumContribution",
      "outputs": [
        {
          "internalType": "uint256",
          "name": "",
          "type": "uint256"
        }
      ],
      "stateMutability": "view",
      "type": "function"
    },
    {
      "inputs": [],
      "name": "owner",
      "outputs": [
        {
          "internalType": "address",
          "name": "",
          "type": "address"
        }
      ],
      "stateMutability": "view",
      "type": "function"
    },
    {
      "inputs": [],
      "name": "timestamp",
      "outputs": [
        {
          "internalType": "uint256",
          "name": "",
          "type": "uint256"
        }
      ],
      "stateMutability": "view",
      "type": "function"
    },
    {
      "inputs": [],
      "name": "title",
      "outputs": [
        {
          "internalType": "string",
          "name": "",
          "type": "string"
        }
      ],
      "stateMutability": "view",
      "type": "function"
    },
    {
      "inputs": [],
      "name": "totalFundingRecieved",
      "outputs": [
        {
          "internalType": "uint256",
          "name": "",
          "type": "uint256"
        }
      ],
      "stateMutability": "view",
      "type": "function"
    },
    {
      "inputs": [],
      "name": "fund",
      "outputs": [],
      "stateMutability": "payable",
      "type": "function"
    },
    {
      "inputs": [
        {
          "internalType": "string",
          "name": "_description",
          "type": "string"
        },
        {
          "internalType": "uint256",
          "name": "_value",
          "type": "uint256"
        },
        {
          "internalType": "address",
          "name": "_recipient",
          "type": "address"
        }
      ],
      "name": "createExpenditureRequest",
      "outputs": [],
      "stateMutability": "nonpayable",
      "type": "function"
    },
    {
      "inputs": [
        {
          "internalType": "uint256",
          "name": "_index",
          "type": "uint256"
        }
      ],
      "name": "approveExpenditureRequest",
      "outputs": [],
      "stateMutability": "nonpayable",
      "type": "function"
    },
    {
      "inputs": [
        {
          "internalType": "uint256",
          "name": "_index",
          "type": "uint256"
        }
      ],
      "name": "finalizeExpenditureRequest",
      "outputs": [],
      "stateMutability": "nonpayable",
      "type": "function"
    },
    {
      "inputs": [],
      "name": "getDetails",
      "outputs": [
        {
          "internalType": "string",
          "name": "",
          "type": "string"
        },
        {
          "internalType": "string",
          "name": "",
          "type": "string"
        },
        {
          "internalType": "uint256",
          "name": "",
          "type": "uint256"
        },
        {
          "internalType": "uint256",
          "name": "",
          "type": "uint256"
        },
        {
          "internalType": "uint256",
          "name": "",
          "type": "uint256"
        },
        {
          "internalType": "string",
          "name": "",
          "type": "string"
        },
        {
          "internalType": "uint256",
          "name": "",
          "type": "uint256"
        },
        {
          "internalType": "address",
          "name": "",
          "type": "address"
        },
        {
          "internalType": "address",
          "name": "",
          "type": "address"
        },
        {
          "internalType": "uint256",
          "name": "",
          "type": "uint256"
        }
      ],
      "stateMutability": "view",
      "type": "function"
    }
  ],
  "bytecode": "0x60806040523480156200001157600080fd5b50604051620016d7380380620016d7833981810160405281019062000037919062000240565b85600090805190602001906200004f929190620000e4565b50846001908051906020019062000068929190620000e4565b50836002819055508260048190555081600590805190602001906200008f929190620000e4565b5080600660006101000a81548173ffffffffffffffffffffffffffffffffffffffff021916908373ffffffffffffffffffffffffffffffffffffffff160217905550426009819055505050505050506200052f565b828054620000f2906200040c565b90600052602060002090601f01602090048101928262000116576000855562000162565b82601f106200013157805160ff191683800117855562000162565b8280016001018555821562000162579182015b828111156200016157825182559160200191906001019062000144565b5b50905062000171919062000175565b5090565b5b808211156200019057600081600090555060010162000176565b5090565b6000620001ab620001a58462000362565b62000339565b905082815260208101848484011115620001ca57620001c9620004db565b5b620001d7848285620003d6565b509392505050565b600081519050620001f081620004fb565b92915050565b600082601f8301126200020e576200020d620004d6565b5b81516200022084826020860162000194565b91505092915050565b6000815190506200023a8162000515565b92915050565b60008060008060008060c0878903121562000260576200025f620004e5565b5b600087015167ffffffffffffffff811115620002815762000280620004e0565b5b6200028f89828a01620001f6565b965050602087015167ffffffffffffffff811115620002b357620002b2620004e0565b5b620002c189828a01620001f6565b9550506040620002d489828a0162000229565b9450506060620002e789828a0162000229565b935050608087015167ffffffffffffffff8111156200030b576200030a620004e0565b5b6200031989828a01620001f6565b92505060a06200032c89828a01620001df565b9150509295509295509295565b60006200034562000358565b905062000353828262000442565b919050565b6000604051905090565b600067ffffffffffffffff82111562000380576200037f620004a7565b5b6200038b82620004ea565b9050602081019050919050565b6000620003a582620003ac565b9050919050565b600073ffffffffffffffffffffffffffffffffffffffff82169050919050565b6000819050919050565b60005b83811015620003f6578082015181840152602081019050620003d9565b8381111562000406576000848401525b50505050565b600060028204905060018216806200042557607f821691505b602082108114156200043c576200043b62000478565b5b50919050565b6200044d82620004ea565b810181811067ffffffffffffffff821117156200046f576200046e620004a7565b5b80604052505050565b7f4e487b7100000000000000000000000000000000000000000000000000000000600052602260045260246000fd5b7f4e487b7100000000000000000000000000000000000000000000000000000000600052604160045260246000fd5b600080fd5b600080fd5b600080fd5b600080fd5b6000601f19601f8301169050919050565b620005068162000398565b81146200051257600080fd5b50565b6200052081620003cc565b81146200052c57600080fd5b50565b611198806200053f6000396000f3fe6080604052600436106100fe5760003560e01c80637a3a0e8411610095578063b80777ea11610064578063b80777ea146102f8578063b85dfb8014610323578063b90497e014610360578063cb6a91221461038b578063fbbf93a0146103b4576100fe565b80637a3a0e841461026d5780638da5cb5b14610298578063937e09b1146102c3578063b60d4288146102ee576100fe565b806367bee3d0116100d157806367bee3d0146101c35780636ce6ed4c146101ee5780636d210c38146102195780637284e41614610242576100fe565b80631d565e7814610103578063371959851461012e5780634a79d50c1461016f578063572d54231461019a575b600080fd5b34801561010f57600080fd5b506101186103e8565b6040516101259190610eb2565b60405180910390f35b34801561013a57600080fd5b5061015560048036038101906101509190610cbc565b6103ee565b604051610166959493929190610e58565b60405180910390f35b34801561017b57600080fd5b506101846104d9565b6040516101919190610d85565b60405180910390f35b3480156101a657600080fd5b506101c160048036038101906101bc9190610cbc565b610567565b005b3480156101cf57600080fd5b506101d861056a565b6040516101e59190610eb2565b60405180910390f35b3480156101fa57600080fd5b50610203610570565b6040516102109190610eb2565b60405180910390f35b34801561022557600080fd5b50610240600480360381019061023b9190610c4d565b610576565b005b34801561024e57600080fd5b5061025761066a565b6040516102649190610d85565b60405180910390f35b34801561027957600080fd5b506102826106f8565b60405161028f9190610eb2565b60405180910390f35b3480156102a457600080fd5b506102ad6106fe565b6040516102ba9190610d4f565b60405180910390f35b3480156102cf57600080fd5b506102d8610724565b6040516102e59190610eb2565b60405180910390f35b6102f661072a565b005b34801561030457600080fd5b5061030d61081f565b60405161031a9190610eb2565b60405180910390f35b34801561032f57600080fd5b5061034a60048036038101906103459190610c20565b610825565b6040516103579190610d6a565b60405180910390f35b34801561036c57600080fd5b50610375610845565b6040516103829190610d85565b60405180910390f35b34801561039757600080fd5b506103b260048036038101906103ad9190610cbc565b6108d3565b005b3480156103c057600080fd5b506103c96108d6565b6040516103df9a99989796959493929190610da7565b60405180910390f35b60085481565b600b6020528060005260406000206000915090508060000180546104119061101f565b80601f016020809104026020016040519081016040528092919081815260200182805461043d9061101f565b801561048a5780601f1061045f5761010080835404028352916020019161048a565b820191906000526020600020905b81548152906001019060200180831161046d57829003601f168201915b5050505050908060010154908060020160009054906101000a900473ffffffffffffffffffffffffffffffffffffffff16908060020160149054906101000a900460ff16908060030154905085565b600080546104e69061101f565b80601f01602080910402602001604051908101604052809291908181526020018280546105129061101f565b801561055f5780601f106105345761010080835404028352916020019161055f565b820191906000526020600020905b81548152906001019060200180831161054257829003601f168201915b505050505081565b50565b60035481565b600a5481565b600660009054906101000a900473ffffffffffffffffffffffffffffffffffffffff1673ffffffffffffffffffffffffffffffffffffffff163373ffffffffffffffffffffffffffffffffffffffff16146105d057600080fd5b6000600b60006001600a60008282546105e99190610f3f565b9250508190558152602001908152602001600020905083816000019080519060200190610617929190610ae3565b50828160010181905550818160020160006101000a81548173ffffffffffffffffffffffffffffffffffffffff021916908373ffffffffffffffffffffffffffffffffffffffff16021790555050505050565b600180546106779061101f565b80601f01602080910402602001604051908101604052809291908181526020018280546106a39061101f565b80156106f05780601f106106c5576101008083540402835291602001916106f0565b820191906000526020600020905b8154815290600101906020018083116106d357829003601f168201915b505050505081565b60025481565b600660009054906101000a900473ffffffffffffffffffffffffffffffffffffffff1681565b60045481565b60045434101561073957600080fd5b60011515600760003373ffffffffffffffffffffffffffffffffffffffff1673ffffffffffffffffffffffffffffffffffffffff16815260200190815260200160002060009054906101000a900460ff161515146107ac576001600860008282546107a49190610f3f565b925050819055505b6001600760003373ffffffffffffffffffffffffffffffffffffffff1673ffffffffffffffffffffffffffffffffffffffff16815260200190815260200160002060006101000a81548160ff02191690831515021790555034600360008282546108169190610f3f565b92505081905550565b60095481565b60076020528060005260406000206000915054906101000a900460ff1681565b600580546108529061101f565b80601f016020809104026020016040519081016040528092919081815260200182805461087e9061101f565b80156108cb5780601f106108a0576101008083540402835291602001916108cb565b820191906000526020600020905b8154815290600101906020018083116108ae57829003601f168201915b505050505081565b50565b6060806000806000606060008060008060006001600254600454600854600560035430600660009054906101000a900473ffffffffffffffffffffffffffffffffffffffff1660095489805461092b9061101f565b80601f01602080910402602001604051908101604052809291908181526020018280546109579061101f565b80156109a45780601f10610979576101008083540402835291602001916109a4565b820191906000526020600020905b81548152906001019060200180831161098757829003601f168201915b505050505099508880546109b79061101f565b80601f01602080910402602001604051908101604052809291908181526020018280546109e39061101f565b8015610a305780601f10610a0557610100808354040283529160200191610a30565b820191906000526020600020905b815481529060010190602001808311610a1357829003601f168201915b50505050509850848054610a439061101f565b80601f0160208091040260200160405190810160405280929190818152602001828054610a6f9061101f565b8015610abc5780601f10610a9157610100808354040283529160200191610abc565b820191906000526020600020905b815481529060010190602001808311610a9f57829003601f168201915b50505050509450995099509950995099509950995099509950995090919293949596979899565b828054610aef9061101f565b90600052602060002090601f016020900481019282610b115760008555610b58565b82601f10610b2a57805160ff1916838001178555610b58565b82800160010185558215610b58579182015b82811115610b57578251825591602001919060010190610b3c565b5b509050610b659190610b69565b5090565b5b80821115610b82576000816000905550600101610b6a565b5090565b6000610b99610b9484610ef2565b610ecd565b905082815260208101848484011115610bb557610bb4611114565b5b610bc0848285610fdd565b509392505050565b600081359050610bd781611134565b92915050565b600082601f830112610bf257610bf161110f565b5b8135610c02848260208601610b86565b91505092915050565b600081359050610c1a8161114b565b92915050565b600060208284031215610c3657610c3561111e565b5b6000610c4484828501610bc8565b91505092915050565b600080600060608486031215610c6657610c6561111e565b5b600084013567ffffffffffffffff811115610c8457610c83611119565b5b610c9086828701610bdd565b9350506020610ca186828701610c0b565b9250506040610cb286828701610bc8565b9150509250925092565b600060208284031215610cd257610cd161111e565b5b6000610ce084828501610c0b565b91505092915050565b610cf281610f95565b82525050565b610d0181610fa7565b82525050565b6000610d1282610f23565b610d1c8185610f2e565b9350610d2c818560208601610fec565b610d3581611123565b840191505092915050565b610d4981610fd3565b82525050565b6000602082019050610d646000830184610ce9565b92915050565b6000602082019050610d7f6000830184610cf8565b92915050565b60006020820190508181036000830152610d9f8184610d07565b905092915050565b6000610140820190508181036000830152610dc2818d610d07565b90508181036020830152610dd6818c610d07565b9050610de5604083018b610d40565b610df2606083018a610d40565b610dff6080830189610d40565b81810360a0830152610e118188610d07565b9050610e2060c0830187610d40565b610e2d60e0830186610ce9565b610e3b610100830185610ce9565b610e49610120830184610d40565b9b9a5050505050505050505050565b600060a0820190508181036000830152610e728188610d07565b9050610e816020830187610d40565b610e8e6040830186610ce9565b610e9b6060830185610cf8565b610ea86080830184610d40565b9695505050505050565b6000602082019050610ec76000830184610d40565b92915050565b6000610ed7610ee8565b9050610ee38282611051565b919050565b6000604051905090565b600067ffffffffffffffff821115610f0d57610f0c6110e0565b5b610f1682611123565b9050602081019050919050565b600081519050919050565b600082825260208201905092915050565b6000610f4a82610fd3565b9150610f5583610fd3565b9250827fffffffffffffffffffffffffffffffffffffffffffffffffffffffffffffffff03821115610f8a57610f89611082565b5b828201905092915050565b6000610fa082610fb3565b9050919050565b60008115159050919050565b600073ffffffffffffffffffffffffffffffffffffffff82169050919050565b6000819050919050565b82818337600083830152505050565b60005b8381101561100a578082015181840152602081019050610fef565b83811115611019576000848401525b50505050565b6000600282049050600182168061103757607f821691505b6020821081141561104b5761104a6110b1565b5b50919050565b61105a82611123565b810181811067ffffffffffffffff82111715611079576110786110e0565b5b80604052505050565b7f4e487b7100000000000000000000000000000000000000000000000000000000600052601160045260246000fd5b7f4e487b7100000000000000000000000000000000000000000000000000000000600052602260045260246000fd5b7f4e487b7100000000000000000000000000000000000000000000000000000000600052604160045260246000fd5b600080fd5b600080fd5b600080fd5b600080fd5b6000601f19601f8301169050919050565b61113d81610f95565b811461114857600080fd5b50565b61115481610fd3565b811461115f57600080fd5b5056fea2646970667358221220bc8396472505b976a9247a9fd1ddb8bf6da8f2703f5682b41cea567775fee7b364736f6c63430008070033",
  "immutableReferences": {},
  "source": "// SPDX-License-Identifier: MIT\npragma solidity 0.8.7;\n\ncontract Campaign {\n    struct ExpenditureRequest {\n        string description;\n        uint256 value;\n        address recipient;\n        bool complete;\n        uint256 approvalCount;\n        mapping(address => bool) approvals;\n    }\n\n    string public title;\n    string public description;\n    uint256 public fundingGoal;\n    uint256 public totalFundingRecieved;\n    uint256 public minimumContribution;\n    string public imageURL;\n    address public owner;\n    mapping(address => bool) public backers;\n    uint256 public backersCount;\n    uint256 public timestamp;\n    uint256 public expenditureRequestsCount;\n    mapping(uint256 => ExpenditureRequest) public expenditureRequests;\n\n    modifier onlyOwner() {\n        require(msg.sender == owner);\n        _;\n    }\n\n    constructor(\n        string memory _title,\n        string memory _description,\n        uint256 _fundingGoal,\n        uint256 _minimumContribution,\n        string memory _imageURL,\n        address _owner\n    ) {\n        title = _title;\n        description = _description;\n        fundingGoal = _fundingGoal;\n        minimumContribution = _minimumContribution;\n        imageURL = _imageURL;\n        owner = _owner;\n        timestamp = block.timestamp;\n    }\n\n    function fund() public payable {\n        require(msg.value >= minimumContribution);\n\n        if (backers[msg.sender] != true) {\n            backersCount += 1;\n        }\n        backers[msg.sender] = true;\n        totalFundingRecieved += msg.value;\n    }\n\n    function createExpenditureRequest(\n        string memory _description,\n        uint256 _value,\n        address _recipient\n    ) public onlyOwner {\n        ExpenditureRequest storage r = expenditureRequests[\n            expenditureRequestsCount += 1\n        ];\n        r.description = _description;\n        r.value = _value;\n        r.recipient = _recipient;\n    }\n\n    function approveExpenditureRequest(uint256 _index) public {\n        // Allows the backer to approve the expenditure\n    }\n\n    function finalizeExpenditureRequest(uint256 _index) public {\n        // check request has been approved by more than 50% of the backers\n        // transfer funds to the recipent\n        // mark request as complete\n    }\n\n    function getDetails()\n        public\n        view\n        returns (\n            string memory,\n            string memory,\n            uint256,\n            uint256,\n            uint256,\n            string memory,\n            uint256,\n            address,\n            address,\n            uint256\n        )\n    {\n        return (\n            title,\n            description,\n            fundingGoal,\n            minimumContribution,\n            backersCount,\n            imageURL,\n            totalFundingRecieved,\n            address(this),\n            owner,\n            timestamp\n        );\n    }\n}\n",
  "sourcePath": "/home/alex/Code/LearningBlockchain/Consensys/blockchain-developer-bootcamp-final-project/contracts/Campaign.sol",
  "compiler": {
    "name": "solc",
    "version": "0.8.7+commit.e28d00a7.Emscripten.clang"
  },
  "schemaVersion": "3.4.3",
  "updatedAt": "2021-11-21T10:01:27.585Z",
  "devdoc": {
    "kind": "dev",
    "methods": {},
    "version": 1
  },
  "userdoc": {
    "kind": "user",
    "methods": {},
    "version": 1
  }
}