{
  "contractName": "Campaign",
  "abi": [
    {
      "inputs": [
        {
          "internalType": "string",
          "name": "_title",
          "type": "string"
        },
        {
          "internalType": "string",
          "name": "_description",
          "type": "string"
        },
        {
          "internalType": "uint256",
          "name": "_fundingGoal",
          "type": "uint256"
        },
        {
          "internalType": "uint256",
          "name": "_minimumContribution",
          "type": "uint256"
        },
        {
          "internalType": "string",
          "name": "_imageURL",
          "type": "string"
        },
        {
          "internalType": "address",
          "name": "_owner",
          "type": "address"
        }
      ],
      "stateMutability": "nonpayable",
      "type": "constructor"
    },
    {
      "inputs": [
        {
          "internalType": "address",
          "name": "",
          "type": "address"
        }
      ],
      "name": "backers",
      "outputs": [
        {
          "internalType": "bool",
          "name": "",
          "type": "bool"
        }
      ],
      "stateMutability": "view",
      "type": "function"
    },
    {
      "inputs": [],
      "name": "backersCount",
      "outputs": [
        {
          "internalType": "uint256",
          "name": "",
          "type": "uint256"
        }
      ],
      "stateMutability": "view",
      "type": "function"
    },
    {
      "inputs": [],
      "name": "description",
      "outputs": [
        {
          "internalType": "string",
          "name": "",
          "type": "string"
        }
      ],
      "stateMutability": "view",
      "type": "function"
    },
    {
      "inputs": [
        {
          "internalType": "uint256",
          "name": "",
          "type": "uint256"
        }
      ],
      "name": "expenditureRequests",
      "outputs": [
        {
          "internalType": "string",
          "name": "description",
          "type": "string"
        },
        {
          "internalType": "uint256",
          "name": "amount",
          "type": "uint256"
        },
        {
          "internalType": "address",
          "name": "recipient",
          "type": "address"
        },
        {
          "internalType": "bool",
          "name": "complete",
          "type": "bool"
        },
        {
          "internalType": "uint256",
          "name": "approvalCount",
          "type": "uint256"
        }
      ],
      "stateMutability": "view",
      "type": "function"
    },
    {
      "inputs": [],
      "name": "expenditureRequestsCount",
      "outputs": [
        {
          "internalType": "uint256",
          "name": "",
          "type": "uint256"
        }
      ],
      "stateMutability": "view",
      "type": "function"
    },
    {
      "inputs": [],
      "name": "fundingGoal",
      "outputs": [
        {
          "internalType": "uint256",
          "name": "",
          "type": "uint256"
        }
      ],
      "stateMutability": "view",
      "type": "function"
    },
    {
      "inputs": [],
      "name": "imageURL",
      "outputs": [
        {
          "internalType": "string",
          "name": "",
          "type": "string"
        }
      ],
      "stateMutability": "view",
      "type": "function"
    },
    {
      "inputs": [],
      "name": "minimumContribution",
      "outputs": [
        {
          "internalType": "uint256",
          "name": "",
          "type": "uint256"
        }
      ],
      "stateMutability": "view",
      "type": "function"
    },
    {
      "inputs": [],
      "name": "owner",
      "outputs": [
        {
          "internalType": "address",
          "name": "",
          "type": "address"
        }
      ],
      "stateMutability": "view",
      "type": "function"
    },
    {
      "inputs": [],
      "name": "timestamp",
      "outputs": [
        {
          "internalType": "uint256",
          "name": "",
          "type": "uint256"
        }
      ],
      "stateMutability": "view",
      "type": "function"
    },
    {
      "inputs": [],
      "name": "title",
      "outputs": [
        {
          "internalType": "string",
          "name": "",
          "type": "string"
        }
      ],
      "stateMutability": "view",
      "type": "function"
    },
    {
      "inputs": [],
      "name": "totalFundingRecieved",
      "outputs": [
        {
          "internalType": "uint256",
          "name": "",
          "type": "uint256"
        }
      ],
      "stateMutability": "view",
      "type": "function"
    },
    {
      "inputs": [],
      "name": "fund",
      "outputs": [],
      "stateMutability": "payable",
      "type": "function"
    },
    {
      "inputs": [
        {
          "internalType": "string",
          "name": "_description",
          "type": "string"
        },
        {
          "internalType": "uint256",
          "name": "_amount",
          "type": "uint256"
        },
        {
          "internalType": "address",
          "name": "_recipient",
          "type": "address"
        }
      ],
      "name": "createExpenditureRequest",
      "outputs": [],
      "stateMutability": "nonpayable",
      "type": "function"
    },
    {
      "inputs": [
        {
          "internalType": "uint256",
          "name": "_index",
          "type": "uint256"
        }
      ],
      "name": "approveExpenditureRequest",
      "outputs": [],
      "stateMutability": "nonpayable",
      "type": "function"
    },
    {
      "inputs": [
        {
          "internalType": "uint256",
          "name": "_index",
          "type": "uint256"
        }
      ],
      "name": "finalizeExpenditureRequest",
      "outputs": [],
      "stateMutability": "nonpayable",
      "type": "function"
    },
    {
      "inputs": [],
      "name": "getDetails",
      "outputs": [
        {
          "internalType": "string",
          "name": "",
          "type": "string"
        },
        {
          "internalType": "string",
          "name": "",
          "type": "string"
        },
        {
          "internalType": "uint256",
          "name": "",
          "type": "uint256"
        },
        {
          "internalType": "uint256",
          "name": "",
          "type": "uint256"
        },
        {
          "internalType": "uint256",
          "name": "",
          "type": "uint256"
        },
        {
          "internalType": "string",
          "name": "",
          "type": "string"
        },
        {
          "internalType": "uint256",
          "name": "",
          "type": "uint256"
        },
        {
          "internalType": "address",
          "name": "",
          "type": "address"
        },
        {
          "internalType": "address",
          "name": "",
          "type": "address"
        },
        {
          "internalType": "uint256",
          "name": "",
          "type": "uint256"
        }
      ],
      "stateMutability": "view",
      "type": "function"
    }
  ],
  "bytecode": "0x60806040523480156200001157600080fd5b5060405162001c1638038062001c16833981810160405281019062000037919062000240565b85600090805190602001906200004f929190620000e4565b50846001908051906020019062000068929190620000e4565b50836002819055508260048190555081600590805190602001906200008f929190620000e4565b5080600660006101000a81548173ffffffffffffffffffffffffffffffffffffffff021916908373ffffffffffffffffffffffffffffffffffffffff160217905550426009819055505050505050506200052f565b828054620000f2906200040c565b90600052602060002090601f01602090048101928262000116576000855562000162565b82601f106200013157805160ff191683800117855562000162565b8280016001018555821562000162579182015b828111156200016157825182559160200191906001019062000144565b5b50905062000171919062000175565b5090565b5b808211156200019057600081600090555060010162000176565b5090565b6000620001ab620001a58462000362565b62000339565b905082815260208101848484011115620001ca57620001c9620004db565b5b620001d7848285620003d6565b509392505050565b600081519050620001f081620004fb565b92915050565b600082601f8301126200020e576200020d620004d6565b5b81516200022084826020860162000194565b91505092915050565b6000815190506200023a8162000515565b92915050565b60008060008060008060c0878903121562000260576200025f620004e5565b5b600087015167ffffffffffffffff811115620002815762000280620004e0565b5b6200028f89828a01620001f6565b965050602087015167ffffffffffffffff811115620002b357620002b2620004e0565b5b620002c189828a01620001f6565b9550506040620002d489828a0162000229565b9450506060620002e789828a0162000229565b935050608087015167ffffffffffffffff8111156200030b576200030a620004e0565b5b6200031989828a01620001f6565b92505060a06200032c89828a01620001df565b9150509295509295509295565b60006200034562000358565b905062000353828262000442565b919050565b6000604051905090565b600067ffffffffffffffff82111562000380576200037f620004a7565b5b6200038b82620004ea565b9050602081019050919050565b6000620003a582620003ac565b9050919050565b600073ffffffffffffffffffffffffffffffffffffffff82169050919050565b6000819050919050565b60005b83811015620003f6578082015181840152602081019050620003d9565b8381111562000406576000848401525b50505050565b600060028204905060018216806200042557607f821691505b602082108114156200043c576200043b62000478565b5b50919050565b6200044d82620004ea565b810181811067ffffffffffffffff821117156200046f576200046e620004a7565b5b80604052505050565b7f4e487b7100000000000000000000000000000000000000000000000000000000600052602260045260246000fd5b7f4e487b7100000000000000000000000000000000000000000000000000000000600052604160045260246000fd5b600080fd5b600080fd5b600080fd5b600080fd5b6000601f19601f8301169050919050565b620005068162000398565b81146200051257600080fd5b50565b6200052081620003cc565b81146200052c57600080fd5b50565b6116d7806200053f6000396000f3fe6080604052600436106100fe5760003560e01c80637a3a0e8411610095578063b80777ea11610064578063b80777ea146102f8578063b85dfb8014610323578063b90497e014610360578063cb6a91221461038b578063fbbf93a0146103b4576100fe565b80637a3a0e841461026d5780638da5cb5b14610298578063937e09b1146102c3578063b60d4288146102ee576100fe565b806367bee3d0116100d157806367bee3d0146101c35780636ce6ed4c146101ee5780636d210c38146102195780637284e41614610242576100fe565b80631d565e7814610103578063371959851461012e5780634a79d50c1461016f578063572d54231461019a575b600080fd5b34801561010f57600080fd5b506101186103e8565b6040516101259190611308565b60405180910390f35b34801561013a57600080fd5b5061015560048036038101906101509190611011565b6103ee565b60405161016695949392919061124e565b60405180910390f35b34801561017b57600080fd5b506101846104d9565b604051610191919061117b565b60405180910390f35b3480156101a657600080fd5b506101c160048036038101906101bc9190611011565b610567565b005b3480156101cf57600080fd5b506101d86106ae565b6040516101e59190611308565b60405180910390f35b3480156101fa57600080fd5b506102036106b4565b6040516102109190611308565b60405180910390f35b34801561022557600080fd5b50610240600480360381019061023b9190610fa2565b6106ba565b005b34801561024e57600080fd5b50610257610882565b604051610264919061117b565b60405180910390f35b34801561027957600080fd5b50610282610910565b60405161028f9190611308565b60405180910390f35b3480156102a457600080fd5b506102ad610916565b6040516102ba9190611145565b60405180910390f35b3480156102cf57600080fd5b506102d861093c565b6040516102e59190611308565b60405180910390f35b6102f6610942565b005b34801561030457600080fd5b5061030d610a37565b60405161031a9190611308565b60405180910390f35b34801561032f57600080fd5b5061034a60048036038101906103459190610f75565b610a3d565b6040516103579190611160565b60405180910390f35b34801561036c57600080fd5b50610375610a5d565b604051610382919061117b565b60405180910390f35b34801561039757600080fd5b506103b260048036038101906103ad9190611011565b610aeb565b005b3480156103c057600080fd5b506103c9610c2b565b6040516103df9a9998979695949392919061119d565b60405180910390f35b60085481565b600b602052806000526040600020600091509050806000018054610411906114b1565b80601f016020809104026020016040519081016040528092919081815260200182805461043d906114b1565b801561048a5780601f1061045f5761010080835404028352916020019161048a565b820191906000526020600020905b81548152906001019060200180831161046d57829003601f168201915b5050505050908060010154908060020160009054906101000a900473ffffffffffffffffffffffffffffffffffffffff16908060020160149054906101000a900460ff16908060030154905085565b600080546104e6906114b1565b80601f0160208091040260200160405190810160405280929190818152602001828054610512906114b1565b801561055f5780601f106105345761010080835404028352916020019161055f565b820191906000526020600020905b81548152906001019060200180831161054257829003601f168201915b505050505081565b6000600b600083815260200190815260200160002090508060020160149054906101000a900460ff161561059a57600080fd5b60026008546105a991906113f6565b8160030154116105b857600080fd5b60008160020160009054906101000a900473ffffffffffffffffffffffffffffffffffffffff1673ffffffffffffffffffffffffffffffffffffffff16826001015460405161060690611130565b60006040518083038185875af1925050503d8060008114610643576040519150601f19603f3d011682016040523d82523d6000602084013e610648565b606091505b505090508061068c576040517f08c379a0000000000000000000000000000000000000000000000000000000008152600401610683906112c8565b60405180910390fd5b60018260020160146101000a81548160ff021916908315150217905550505050565b60035481565b600a5481565b600660009054906101000a900473ffffffffffffffffffffffffffffffffffffffff1673ffffffffffffffffffffffffffffffffffffffff163373ffffffffffffffffffffffffffffffffffffffff161461071457600080fd5b81471015610757576040517f08c379a000000000000000000000000000000000000000000000000000000000815260040161074e906112a8565b60405180910390fd5b600660009054906101000a900473ffffffffffffffffffffffffffffffffffffffff1673ffffffffffffffffffffffffffffffffffffffff168173ffffffffffffffffffffffffffffffffffffffff1614156107e8576040517f08c379a00000000000000000000000000000000000000000000000000000000081526004016107df906112e8565b60405180910390fd5b6000600b60006001600a600082825461080191906113a0565b925050819055815260200190815260200160002090508381600001908051906020019061082f929190610e38565b50828160010181905550818160020160006101000a81548173ffffffffffffffffffffffffffffffffffffffff021916908373ffffffffffffffffffffffffffffffffffffffff16021790555050505050565b6001805461088f906114b1565b80601f01602080910402602001604051908101604052809291908181526020018280546108bb906114b1565b80156109085780601f106108dd57610100808354040283529160200191610908565b820191906000526020600020905b8154815290600101906020018083116108eb57829003601f168201915b505050505081565b60025481565b600660009054906101000a900473ffffffffffffffffffffffffffffffffffffffff1681565b60045481565b60045434101561095157600080fd5b60011515600760003373ffffffffffffffffffffffffffffffffffffffff1673ffffffffffffffffffffffffffffffffffffffff16815260200190815260200160002060009054906101000a900460ff161515146109c4576001600860008282546109bc91906113a0565b925050819055505b6001600760003373ffffffffffffffffffffffffffffffffffffffff1673ffffffffffffffffffffffffffffffffffffffff16815260200190815260200160002060006101000a81548160ff0219169083151502179055503460036000828254610a2e91906113a0565b92505081905550565b60095481565b60076020528060005260406000206000915054906101000a900460ff1681565b60058054610a6a906114b1565b80601f0160208091040260200160405190810160405280929190818152602001828054610a96906114b1565b8015610ae35780601f10610ab857610100808354040283529160200191610ae3565b820191906000526020600020905b815481529060010190602001808311610ac657829003601f168201915b505050505081565b6000600b60008381526020019081526020016000209050600760003373ffffffffffffffffffffffffffffffffffffffff1673ffffffffffffffffffffffffffffffffffffffff16815260200190815260200160002060009054906101000a900460ff16610b5857600080fd5b8060040160003373ffffffffffffffffffffffffffffffffffffffff1673ffffffffffffffffffffffffffffffffffffffff16815260200190815260200160002060009054906101000a900460ff1615610bb157600080fd5b60018160040160003373ffffffffffffffffffffffffffffffffffffffff1673ffffffffffffffffffffffffffffffffffffffff16815260200190815260200160002060006101000a81548160ff0219169083151502179055506001816003016000828254610c2091906113a0565b925050819055505050565b6060806000806000606060008060008060006001600254600454600854600560035430600660009054906101000a900473ffffffffffffffffffffffffffffffffffffffff16600954898054610c80906114b1565b80601f0160208091040260200160405190810160405280929190818152602001828054610cac906114b1565b8015610cf95780601f10610cce57610100808354040283529160200191610cf9565b820191906000526020600020905b815481529060010190602001808311610cdc57829003601f168201915b50505050509950888054610d0c906114b1565b80601f0160208091040260200160405190810160405280929190818152602001828054610d38906114b1565b8015610d855780601f10610d5a57610100808354040283529160200191610d85565b820191906000526020600020905b815481529060010190602001808311610d6857829003601f168201915b50505050509850848054610d98906114b1565b80601f0160208091040260200160405190810160405280929190818152602001828054610dc4906114b1565b8015610e115780601f10610de657610100808354040283529160200191610e11565b820191906000526020600020905b815481529060010190602001808311610df457829003601f168201915b50505050509450995099509950995099509950995099509950995090919293949596979899565b828054610e44906114b1565b90600052602060002090601f016020900481019282610e665760008555610ead565b82601f10610e7f57805160ff1916838001178555610ead565b82800160010185558215610ead579182015b82811115610eac578251825591602001919060010190610e91565b5b509050610eba9190610ebe565b5090565b5b80821115610ed7576000816000905550600101610ebf565b5090565b6000610eee610ee984611348565b611323565b905082815260208101848484011115610f0a57610f096115d5565b5b610f1584828561146f565b509392505050565b600081359050610f2c81611673565b92915050565b600082601f830112610f4757610f466115d0565b5b8135610f57848260208601610edb565b91505092915050565b600081359050610f6f8161168a565b92915050565b600060208284031215610f8b57610f8a6115df565b5b6000610f9984828501610f1d565b91505092915050565b600080600060608486031215610fbb57610fba6115df565b5b600084013567ffffffffffffffff811115610fd957610fd86115da565b5b610fe586828701610f32565b9350506020610ff686828701610f60565b925050604061100786828701610f1d565b9150509250925092565b600060208284031215611027576110266115df565b5b600061103584828501610f60565b91505092915050565b61104781611427565b82525050565b61105681611439565b82525050565b600061106782611379565b611071818561138f565b935061108181856020860161147e565b61108a816115e4565b840191505092915050565b60006110a2601f8361138f565b91506110ad826115f5565b602082019050919050565b60006110c5600083611384565b91506110d08261161e565b600082019050919050565b60006110e860108361138f565b91506110f382611621565b602082019050919050565b600061110b601d8361138f565b91506111168261164a565b602082019050919050565b61112a81611465565b82525050565b600061113b826110b8565b9150819050919050565b600060208201905061115a600083018461103e565b92915050565b6000602082019050611175600083018461104d565b92915050565b60006020820190508181036000830152611195818461105c565b905092915050565b60006101408201905081810360008301526111b8818d61105c565b905081810360208301526111cc818c61105c565b90506111db604083018b611121565b6111e8606083018a611121565b6111f56080830189611121565b81810360a0830152611207818861105c565b905061121660c0830187611121565b61122360e083018661103e565b61123161010083018561103e565b61123f610120830184611121565b9b9a5050505050505050505050565b600060a0820190508181036000830152611268818861105c565b90506112776020830187611121565b611284604083018661103e565b611291606083018561104d565b61129e6080830184611121565b9695505050505050565b600060208201905081810360008301526112c181611095565b9050919050565b600060208201905081810360008301526112e1816110db565b9050919050565b60006020820190508181036000830152611301816110fe565b9050919050565b600060208201905061131d6000830184611121565b92915050565b600061132d61133e565b905061133982826114e3565b919050565b6000604051905090565b600067ffffffffffffffff821115611363576113626115a1565b5b61136c826115e4565b9050602081019050919050565b600081519050919050565b600081905092915050565b600082825260208201905092915050565b60006113ab82611465565b91506113b683611465565b9250827fffffffffffffffffffffffffffffffffffffffffffffffffffffffffffffffff038211156113eb576113ea611514565b5b828201905092915050565b600061140182611465565b915061140c83611465565b92508261141c5761141b611543565b5b828204905092915050565b600061143282611445565b9050919050565b60008115159050919050565b600073ffffffffffffffffffffffffffffffffffffffff82169050919050565b6000819050919050565b82818337600083830152505050565b60005b8381101561149c578082015181840152602081019050611481565b838111156114ab576000848401525b50505050565b600060028204905060018216806114c957607f821691505b602082108114156114dd576114dc611572565b5b50919050565b6114ec826115e4565b810181811067ffffffffffffffff8211171561150b5761150a6115a1565b5b80604052505050565b7f4e487b7100000000000000000000000000000000000000000000000000000000600052601160045260246000fd5b7f4e487b7100000000000000000000000000000000000000000000000000000000600052601260045260246000fd5b7f4e487b7100000000000000000000000000000000000000000000000000000000600052602260045260246000fd5b7f4e487b7100000000000000000000000000000000000000000000000000000000600052604160045260246000fd5b600080fd5b600080fd5b600080fd5b600080fd5b6000601f19601f8301169050919050565b7f52657175657374696e67206d6f7265207468616e20617661696c61626c652e00600082015250565b50565b7f5472616e73666572206661696c65642e00000000000000000000000000000000600082015250565b7f526563697069656e742063616e6e6f7420626520746865206f776e6572000000600082015250565b61167c81611427565b811461168757600080fd5b50565b61169381611465565b811461169e57600080fd5b5056fea2646970667358221220eb47a0e0e63f6b77cf699f8a9c100bb6aeb70565b336b928abf85974ba9b31b864736f6c63430008070033",
  "immutableReferences": {},
  "source": "// SPDX-License-Identifier: MIT\npragma solidity 0.8.7;\n\ncontract Campaign {\n    struct ExpenditureRequest {\n        string description;\n        uint256 amount;\n        address recipient;\n        bool complete;\n        uint256 approvalCount;\n        mapping(address => bool) approvals;\n    }\n\n    string public title;\n    string public description;\n    uint256 public fundingGoal;\n    uint256 public totalFundingRecieved;\n    uint256 public minimumContribution;\n    string public imageURL;\n    address public owner;\n    mapping(address => bool) public backers;\n    uint256 public backersCount;\n    uint256 public timestamp;\n    uint256 public expenditureRequestsCount;\n    mapping(uint256 => ExpenditureRequest) public expenditureRequests;\n\n    modifier onlyOwner() {\n        require(msg.sender == owner);\n        _;\n    }\n\n    constructor(\n        string memory _title,\n        string memory _description,\n        uint256 _fundingGoal,\n        uint256 _minimumContribution,\n        string memory _imageURL,\n        address _owner\n    ) {\n        title = _title;\n        description = _description;\n        fundingGoal = _fundingGoal;\n        minimumContribution = _minimumContribution;\n        imageURL = _imageURL;\n        owner = _owner;\n        timestamp = block.timestamp;\n    }\n\n    function fund() public payable {\n        require(msg.value >= minimumContribution);\n\n        if (backers[msg.sender] != true) {\n            backersCount += 1;\n        }\n        backers[msg.sender] = true;\n        totalFundingRecieved += msg.value;\n    }\n\n    function createExpenditureRequest(\n        string memory _description,\n        uint256 _amount,\n        address _recipient\n    ) public onlyOwner {\n        require(\n            address(this).balance >= _amount,\n            \"Requesting more than available.\"\n        );\n        require(_recipient != owner, \"Recipient cannot be the owner\");\n        ExpenditureRequest storage r = expenditureRequests[\n            expenditureRequestsCount += 1\n        ];\n        r.description = _description;\n        r.amount = _amount;\n        r.recipient = _recipient;\n    }\n\n    function approveExpenditureRequest(uint256 _index) public {\n        ExpenditureRequest storage request = expenditureRequests[_index];\n\n        require(backers[msg.sender]);\n        require(!request.approvals[msg.sender]);\n\n        request.approvals[msg.sender] = true;\n        request.approvalCount += 1;\n    }\n\n    function finalizeExpenditureRequest(uint256 _index) public {\n        ExpenditureRequest storage request = expenditureRequests[_index];\n\n        require(!request.complete);\n        require(request.approvalCount > (backersCount / 2));\n\n        (bool success, ) = request.recipient.call{value: request.amount}(\"\");\n        require(success, \"Transfer failed.\");\n        request.complete = true;\n    }\n\n    function getDetails()\n        public\n        view\n        returns (\n            string memory,\n            string memory,\n            uint256,\n            uint256,\n            uint256,\n            string memory,\n            uint256,\n            address,\n            address,\n            uint256\n        )\n    {\n        return (\n            title,\n            description,\n            fundingGoal,\n            minimumContribution,\n            backersCount,\n            imageURL,\n            totalFundingRecieved,\n            address(this),\n            owner,\n            timestamp\n        );\n    }\n}\n",
  "sourcePath": "/home/alex/Code/LearningBlockchain/Consensys/blockchain-developer-bootcamp-final-project/contracts/Campaign.sol",
  "compiler": {
    "name": "solc",
    "version": "0.8.7+commit.e28d00a7.Emscripten.clang"
  },
  "schemaVersion": "3.4.3",
  "updatedAt": "2021-11-21T20:49:00.859Z",
  "devdoc": {
    "kind": "dev",
    "methods": {},
    "version": 1
  },
  "userdoc": {
    "kind": "user",
    "methods": {},
    "version": 1
  }
}